{
  "abi": [
    {
      "inputs": [
        {
          "internalType": "address",
          "name": "operator",
          "type": "address"
        }
      ],
      "name": "AddressAlreadyFiltered",
      "type": "error"
    },
    {
      "inputs": [
        {
          "internalType": "address",
          "name": "filtered",
          "type": "address"
        }
      ],
      "name": "AddressFiltered",
      "type": "error"
    },
    {
      "inputs": [
        {
          "internalType": "address",
          "name": "operator",
          "type": "address"
        }
      ],
      "name": "AddressNotFiltered",
      "type": "error"
    },
    {
      "inputs": [],
      "name": "AlreadyRegistered",
      "type": "error"
    },
    {
      "inputs": [
        {
          "internalType": "address",
          "name": "subscription",
          "type": "address"
        }
      ],
      "name": "AlreadySubscribed",
      "type": "error"
    },
    {
      "inputs": [],
      "name": "CannotCopyFromSelf",
      "type": "error"
    },
    {
      "inputs": [],
      "name": "CannotFilterEOAs",
      "type": "error"
    },
    {
      "inputs": [
        {
          "internalType": "address",
          "name": "registrant",
          "type": "address"
        }
      ],
      "name": "CannotSubscribeToRegistrantWithSubscription",
      "type": "error"
    },
    {
      "inputs": [],
      "name": "CannotSubscribeToSelf",
      "type": "error"
    },
    {
      "inputs": [],
      "name": "CannotSubscribeToZeroAddress",
      "type": "error"
    },
    {
      "inputs": [
        {
          "internalType": "address",
          "name": "subscription",
          "type": "address"
        }
      ],
      "name": "CannotUpdateWhileSubscribed",
      "type": "error"
    },
    {
      "inputs": [
        {
          "internalType": "bytes32",
          "name": "codeHash",
          "type": "bytes32"
        }
      ],
      "name": "CodeHashAlreadyFiltered",
      "type": "error"
    },
    {
      "inputs": [
        {
          "internalType": "address",
          "name": "account",
          "type": "address"
        },
        {
          "internalType": "bytes32",
          "name": "codeHash",
          "type": "bytes32"
        }
      ],
      "name": "CodeHashFiltered",
      "type": "error"
    },
    {
      "inputs": [
        {
          "internalType": "bytes32",
          "name": "codeHash",
          "type": "bytes32"
        }
      ],
      "name": "CodeHashNotFiltered",
      "type": "error"
    },
    {
      "inputs": [],
      "name": "NotOwnable",
      "type": "error"
    },
    {
      "inputs": [
        {
          "internalType": "address",
          "name": "registrant",
          "type": "address"
        }
      ],
      "name": "NotRegistered",
      "type": "error"
    },
    {
      "inputs": [],
      "name": "NotSubscribed",
      "type": "error"
    },
    {
      "inputs": [],
      "name": "OnlyAddressOrOwner",
      "type": "error"
    },
    {
      "anonymous": false,
      "inputs": [
        {
          "indexed": true,
          "internalType": "address",
          "name": "registrant",
          "type": "address"
        },
        {
          "indexed": true,
          "internalType": "bytes32",
          "name": "codeHash",
          "type": "bytes32"
        },
        {
          "indexed": true,
          "internalType": "bool",
          "name": "filtered",
          "type": "bool"
        }
      ],
      "name": "CodeHashUpdated",
      "type": "event"
    },
    {
      "anonymous": false,
      "inputs": [
        {
          "indexed": true,
          "internalType": "address",
          "name": "registrant",
          "type": "address"
        },
        {
          "indexed": false,
          "internalType": "bytes32[]",
          "name": "codeHashes",
          "type": "bytes32[]"
        },
        {
          "indexed": true,
          "internalType": "bool",
          "name": "filtered",
          "type": "bool"
        }
      ],
      "name": "CodeHashesUpdated",
      "type": "event"
    },
    {
      "anonymous": false,
      "inputs": [
        {
          "indexed": true,
          "internalType": "address",
          "name": "registrant",
          "type": "address"
        },
        {
          "indexed": true,
          "internalType": "address",
          "name": "operator",
          "type": "address"
        },
        {
          "indexed": true,
          "internalType": "bool",
          "name": "filtered",
          "type": "bool"
        }
      ],
      "name": "OperatorUpdated",
      "type": "event"
    },
    {
      "anonymous": false,
      "inputs": [
        {
          "indexed": true,
          "internalType": "address",
          "name": "registrant",
          "type": "address"
        },
        {
          "indexed": false,
          "internalType": "address[]",
          "name": "operators",
          "type": "address[]"
        },
        {
          "indexed": true,
          "internalType": "bool",
          "name": "filtered",
          "type": "bool"
        }
      ],
      "name": "OperatorsUpdated",
      "type": "event"
    },
    {
      "anonymous": false,
      "inputs": [
        {
          "indexed": true,
          "internalType": "address",
          "name": "registrant",
          "type": "address"
        },
        {
          "indexed": true,
          "internalType": "bool",
          "name": "registered",
          "type": "bool"
        }
      ],
      "name": "RegistrationUpdated",
      "type": "event"
    },
    {
      "anonymous": false,
      "inputs": [
        {
          "indexed": true,
          "internalType": "address",
          "name": "registrant",
          "type": "address"
        },
        {
          "indexed": true,
          "internalType": "address",
          "name": "subscription",
          "type": "address"
        },
        {
          "indexed": true,
          "internalType": "bool",
          "name": "subscribed",
          "type": "bool"
        }
      ],
      "name": "SubscriptionUpdated",
      "type": "event"
    },
    {
      "inputs": [
        {
          "internalType": "address",
          "name": "a",
          "type": "address"
        }
      ],
      "name": "codeHashOf",
      "outputs": [
        {
          "internalType": "bytes32",
          "name": "",
          "type": "bytes32"
        }
      ],
      "stateMutability": "view",
      "type": "function"
    },
    {
      "inputs": [
        {
          "internalType": "address",
          "name": "registrant",
          "type": "address"
        },
        {
          "internalType": "address",
          "name": "registrantToCopy",
          "type": "address"
        }
      ],
      "name": "copyEntriesOf",
      "outputs": [],
      "stateMutability": "nonpayable",
      "type": "function"
    },
    {
      "inputs": [
        {
          "internalType": "address",
          "name": "registrant",
          "type": "address"
        },
        {
          "internalType": "uint256",
          "name": "index",
          "type": "uint256"
        }
      ],
      "name": "filteredCodeHashAt",
      "outputs": [
        {
          "internalType": "bytes32",
          "name": "",
          "type": "bytes32"
        }
      ],
      "stateMutability": "view",
      "type": "function"
    },
    {
      "inputs": [
        {
          "internalType": "address",
          "name": "registrant",
          "type": "address"
        }
      ],
      "name": "filteredCodeHashes",
      "outputs": [
        {
          "internalType": "bytes32[]",
          "name": "",
          "type": "bytes32[]"
        }
      ],
      "stateMutability": "view",
      "type": "function"
    },
    {
      "inputs": [
        {
          "internalType": "address",
          "name": "registrant",
          "type": "address"
        },
        {
          "internalType": "uint256",
          "name": "index",
          "type": "uint256"
        }
      ],
      "name": "filteredOperatorAt",
      "outputs": [
        {
          "internalType": "address",
          "name": "",
          "type": "address"
        }
      ],
      "stateMutability": "view",
      "type": "function"
    },
    {
      "inputs": [
        {
          "internalType": "address",
          "name": "registrant",
          "type": "address"
        }
      ],
      "name": "filteredOperators",
      "outputs": [
        {
          "internalType": "address[]",
          "name": "",
          "type": "address[]"
        }
      ],
      "stateMutability": "view",
      "type": "function"
    },
    {
      "inputs": [
        {
          "internalType": "address",
          "name": "registrant",
          "type": "address"
        },
        {
          "internalType": "bytes32",
          "name": "codeHash",
          "type": "bytes32"
        }
      ],
      "name": "isCodeHashFiltered",
      "outputs": [
        {
          "internalType": "bool",
          "name": "",
          "type": "bool"
        }
      ],
      "stateMutability": "view",
      "type": "function"
    },
    {
      "inputs": [
        {
          "internalType": "address",
          "name": "registrant",
          "type": "address"
        },
        {
          "internalType": "address",
          "name": "operatorWithCode",
          "type": "address"
        }
      ],
      "name": "isCodeHashOfFiltered",
      "outputs": [
        {
          "internalType": "bool",
          "name": "",
          "type": "bool"
        }
      ],
      "stateMutability": "view",
      "type": "function"
    },
    {
      "inputs": [
        {
          "internalType": "address",
          "name": "registrant",
          "type": "address"
        },
        {
          "internalType": "address",
          "name": "operator",
          "type": "address"
        }
      ],
      "name": "isOperatorAllowed",
      "outputs": [
        {
          "internalType": "bool",
          "name": "",
          "type": "bool"
        }
      ],
      "stateMutability": "view",
      "type": "function"
    },
    {
      "inputs": [
        {
          "internalType": "address",
          "name": "registrant",
          "type": "address"
        },
        {
          "internalType": "address",
          "name": "operator",
          "type": "address"
        }
      ],
      "name": "isOperatorFiltered",
      "outputs": [
        {
          "internalType": "bool",
          "name": "",
          "type": "bool"
        }
      ],
      "stateMutability": "view",
      "type": "function"
    },
    {
      "inputs": [
        {
          "internalType": "address",
          "name": "registrant",
          "type": "address"
        }
      ],
      "name": "isRegistered",
      "outputs": [
        {
          "internalType": "bool",
          "name": "",
          "type": "bool"
        }
      ],
      "stateMutability": "view",
      "type": "function"
    },
    {
      "inputs": [
        {
          "internalType": "address",
          "name": "registrant",
          "type": "address"
        }
      ],
      "name": "register",
      "outputs": [],
      "stateMutability": "nonpayable",
      "type": "function"
    },
    {
      "inputs": [
        {
          "internalType": "address",
          "name": "registrant",
          "type": "address"
        },
        {
          "internalType": "address",
          "name": "registrantToCopy",
          "type": "address"
        }
      ],
      "name": "registerAndCopyEntries",
      "outputs": [],
      "stateMutability": "nonpayable",
      "type": "function"
    },
    {
      "inputs": [
        {
          "internalType": "address",
          "name": "registrant",
          "type": "address"
        },
        {
          "internalType": "address",
          "name": "subscription",
          "type": "address"
        }
      ],
      "name": "registerAndSubscribe",
      "outputs": [],
      "stateMutability": "nonpayable",
      "type": "function"
    },
    {
      "inputs": [
        {
          "internalType": "address",
          "name": "registrant",
          "type": "address"
        },
        {
          "internalType": "address",
          "name": "newSubscription",
          "type": "address"
        }
      ],
      "name": "subscribe",
      "outputs": [],
      "stateMutability": "nonpayable",
      "type": "function"
    },
    {
      "inputs": [
        {
          "internalType": "address",
          "name": "registrant",
          "type": "address"
        },
        {
          "internalType": "uint256",
          "name": "index",
          "type": "uint256"
        }
      ],
      "name": "subscriberAt",
      "outputs": [
        {
          "internalType": "address",
          "name": "",
          "type": "address"
        }
      ],
      "stateMutability": "view",
      "type": "function"
    },
    {
      "inputs": [
        {
          "internalType": "address",
          "name": "registrant",
          "type": "address"
        }
      ],
      "name": "subscribers",
      "outputs": [
        {
          "internalType": "address[]",
          "name": "",
          "type": "address[]"
        }
      ],
      "stateMutability": "view",
      "type": "function"
    },
    {
      "inputs": [
        {
          "internalType": "address",
          "name": "registrant",
          "type": "address"
        }
      ],
      "name": "subscriptionOf",
      "outputs": [
        {
          "internalType": "address",
          "name": "subscription",
          "type": "address"
        }
      ],
      "stateMutability": "view",
      "type": "function"
    },
    {
      "inputs": [
        {
          "internalType": "address",
          "name": "registrant",
          "type": "address"
        }
      ],
      "name": "unregister",
      "outputs": [],
      "stateMutability": "nonpayable",
      "type": "function"
    },
    {
      "inputs": [
        {
          "internalType": "address",
          "name": "registrant",
          "type": "address"
        },
        {
          "internalType": "bool",
          "name": "copyExistingEntries",
          "type": "bool"
        }
      ],
      "name": "unsubscribe",
      "outputs": [],
      "stateMutability": "nonpayable",
      "type": "function"
    },
    {
      "inputs": [
        {
          "internalType": "address",
          "name": "registrant",
          "type": "address"
        },
        {
          "internalType": "bytes32",
          "name": "codeHash",
          "type": "bytes32"
        },
        {
          "internalType": "bool",
          "name": "filtered",
          "type": "bool"
        }
      ],
      "name": "updateCodeHash",
      "outputs": [],
      "stateMutability": "nonpayable",
      "type": "function"
    },
    {
      "inputs": [
        {
          "internalType": "address",
          "name": "registrant",
          "type": "address"
        },
        {
          "internalType": "bytes32[]",
          "name": "codeHashes",
          "type": "bytes32[]"
        },
        {
          "internalType": "bool",
          "name": "filtered",
          "type": "bool"
        }
      ],
      "name": "updateCodeHashes",
      "outputs": [],
      "stateMutability": "nonpayable",
      "type": "function"
    },
    {
      "inputs": [
        {
          "internalType": "address",
          "name": "registrant",
          "type": "address"
        },
        {
          "internalType": "address",
          "name": "operator",
          "type": "address"
        },
        {
          "internalType": "bool",
          "name": "filtered",
          "type": "bool"
        }
      ],
      "name": "updateOperator",
      "outputs": [],
      "stateMutability": "nonpayable",
      "type": "function"
    },
    {
      "inputs": [
        {
          "internalType": "address",
          "name": "registrant",
          "type": "address"
        },
        {
          "internalType": "address[]",
          "name": "operators",
          "type": "address[]"
        },
        {
          "internalType": "bool",
          "name": "filtered",
          "type": "bool"
        }
      ],
      "name": "updateOperators",
      "outputs": [],
      "stateMutability": "nonpayable",
      "type": "function"
    }
  ],
  "bytecode": "608060405234801561001057600080fd5b5061275c806100206000396000f3fe608060405234801561001057600080fd5b50600436106101585760003560e01c8063712fc00b116100c3578063b314d4141161007c578063b314d4141461030e578063bbd652c714610321578063c3c5a5471461033c578063c43088051461036a578063c61711341461037d578063e4aecb541461039057600080fd5b8063712fc00b1461028e5780637d3e3dbe146102a1578063a0af2903146102b4578063a14584c1146102c7578063a2f367ab146102da578063a6529eb5146102ed57600080fd5b80633f1cc5fa116101155780633f1cc5fa146101ff5780634420e4861461021257806355940e51146102255780635745ae28146102385780635eae3173146102585780636af0c3151461027b57600080fd5b8063063298b61461015d5780631e06b4b41461017257806322fa2762146101855780632ec2c246146101ae57806334a0dc10146101c15780633c5030bb146101d4575b600080fd5b61017061016b3660046123d6565b6103a3565b005b61017061018036600461243d565b61069d565b610198610193366004612476565b610869565b6040516101a59190612493565b60405180910390f35b6101706101bc366004612476565b6108d7565b6101706101cf3660046124d7565b610a88565b6101e76101e2366004612476565b610c3f565b6040516001600160a01b0390911681526020016101a5565b6101e761020d36600461250c565b610ca5565b610170610220366004612476565b610d1f565b6101e761023336600461250c565b610e5f565b61024b610246366004612476565b610e81565b6040516101a59190612538565b61026b61026636600461243d565b610ea5565b60405190151581526020016101a5565b61026b61028936600461250c565b610f25565b61017061029c366004612579565b610f8d565b6101706102af36600461243d565b6111d6565b6101706102c236600461243d565b611420565b6101706102d53660046123d6565b6115dd565b6101706102e83660046125b7565b611874565b6103006102fb36600461250c565b611a97565b6040519081526020016101a5565b61017061031c36600461243d565b611aff565b61030061032f366004612476565b6001600160a01b03163f90565b61026b61034a366004612476565b6001600160a01b0390811660009081526002602052604090205416151590565b61024b610378366004612476565b611df8565b61026b61038b36600461243d565b611e5f565b61026b61039e36600461243d565b611f3a565b83336001600160a01b0382161461049757806001600160a01b0316638da5cb5b6040518163ffffffff1660e01b8152600401602060405180830381865afa92505050801561040e575060408051601f3d908101601f1916820190925261040b918101906125f5565b60015b61046c573d80801561043c576040519150601f19603f3d011682016040523d82523d6000602084013e610441565b606091505b508051600003610464576040516302cb050560e61b815260040160405180910390fd5b805181602001fd5b336001600160a01b0382161461049557604051631f9ebdff60e31b815260040160405180910390fd5b505b6001600160a01b0380861660009081526002602052604090205416806104e05760405163bfc6c33760e01b81526001600160a01b03871660048201526024015b60405180910390fd5b856001600160a01b0316816001600160a01b03161461051d576040516304af4d6960e01b81526001600160a01b03821660048201526024016104d7565b6001600160a01b038616600090815260016020526040902084846105ab5760005b818110156105a557600088888381811061055a5761055a612612565b90506020020135905060006105788286611fa290919063ffffffff16565b90508061059b576040516308f0e61560e31b8152600481018390526024016104d7565b505060010161053e565b5061064d565b60005b8181101561064b5760008888838181106105ca576105ca612612565b9050602002013590507fc5d2460186f7233c927e7db2dcc703c0e500b653ca82273b7bfad8045d85a470810361061357604051631eaebd5b60e31b815260040160405180910390fd5b600061061f8583611fae565b90508061064157604051620c35f560e91b8152600481018390526024016104d7565b50506001016105ae565b505b841515886001600160a01b03167f34e9f70c5a16a4df2a396cf0cbc4735eb3c7fb6ae40aaa0b34be7720121d1b96898960405161068b929190612628565b60405180910390a35050505050505050565b81336001600160a01b0382161461076157806001600160a01b0316638da5cb5b6040518163ffffffff1660e01b8152600401602060405180830381865afa925050508015610708575060408051601f3d908101601f19168201909252610705918101906125f5565b60015b610736573d80801561043c576040519150601f19603f3d011682016040523d82523d6000602084013e610441565b336001600160a01b0382161461075f57604051631f9ebdff60e31b815260040160405180910390fd5b505b816001600160a01b0316836001600160a01b0316036107935760405163035956d760e31b815260040160405180910390fd5b6001600160a01b0380841660009081526002602052604090205416806107d75760405163bfc6c33760e01b81526001600160a01b03851660048201526024016104d7565b836001600160a01b0316816001600160a01b031614610814576040516304af4d6960e01b81526001600160a01b03821660048201526024016104d7565b6001600160a01b0380841660009081526002602052604090205416806108585760405163bfc6c33760e01b81526001600160a01b03851660048201526024016104d7565b6108628585611fba565b5050505050565b6001600160a01b03808216600081815260026020526040902054606092169081146108b6576001600160a01b03811660009081526001602052604090206108af90612113565b9392505050565b6001600160a01b03831660009081526001602052604090206108af90612113565b80336001600160a01b0382161461099b57806001600160a01b0316638da5cb5b6040518163ffffffff1660e01b8152600401602060405180830381865afa925050508015610942575060408051601f3d908101601f1916820190925261093f918101906125f5565b60015b610970573d80801561043c576040519150601f19603f3d011682016040523d82523d6000602084013e610441565b336001600160a01b0382161461099957604051631f9ebdff60e31b815260040160405180910390fd5b505b6001600160a01b0380831660009081526002602052604090205416806109df5760405163bfc6c33760e01b81526001600160a01b03841660048201526024016104d7565b826001600160a01b0316816001600160a01b031614610a45576001600160a01b0381166000908152600360205260409020610a1a9084612120565b506040516000906001600160a01b038084169190861690600080516020612707833981519152908490a45b6001600160a01b03831660008181526002602052604080822080546001600160a01b0319169055519091906000805160206126e7833981519152908390a3505050565b81336001600160a01b03821614610b4c57806001600160a01b0316638da5cb5b6040518163ffffffff1660e01b8152600401602060405180830381865afa925050508015610af3575060408051601f3d908101601f19168201909252610af0918101906125f5565b60015b610b21573d80801561043c576040519150601f19603f3d011682016040523d82523d6000602084013e610441565b336001600160a01b03821614610b4a57604051631f9ebdff60e31b815260040160405180910390fd5b505b6001600160a01b038084166000908152600260205260409020541680610b905760405163bfc6c33760e01b81526001600160a01b03851660048201526024016104d7565b836001600160a01b0316816001600160a01b031603610bc25760405163046fcd8560e31b815260040160405180910390fd5b6001600160a01b0381166000908152600360205260409020610be49085612120565b506001600160a01b0380851660008181526002602052604080822080546001600160a01b0319168417905551909284169190600080516020612707833981519152908490a48215610c3957610c398482611fba565b50505050565b6001600160a01b038082166000908152600260205260409020541680610c835760405163bfc6c33760e01b81526001600160a01b03831660048201526024016104d7565b816001600160a01b0316816001600160a01b031603610ca0575060005b919050565b6001600160a01b03808316600081815260026020526040812054909216908114610cf3576001600160a01b0381166000908152602081905260409020610ceb9084612135565b915050610d19565b6001600160a01b0384166000908152602081905260409020610d159084612135565b9150505b92915050565b80336001600160a01b03821614610de357806001600160a01b0316638da5cb5b6040518163ffffffff1660e01b8152600401602060405180830381865afa925050508015610d8a575060408051601f3d908101601f19168201909252610d87918101906125f5565b60015b610db8573d80801561043c576040519150601f19603f3d011682016040523d82523d6000602084013e610441565b336001600160a01b03821614610de157604051631f9ebdff60e31b815260040160405180910390fd5b505b6001600160a01b038281166000908152600260205260409020541615610e1c57604051630ea075bf60e21b815260040160405180910390fd5b6001600160a01b03821660008181526002602052604080822080546001600160a01b0319168417905551600192916000805160206126e783398151915291a35050565b6001600160a01b03821660009081526003602052604081206108af9083612135565b6001600160a01b0381166000908152600360205260409020606090610d1990612113565b6001600160a01b0382811660008181526002602052604081205490928085163f929116908114610efa576001600160a01b0381166000908152600160205260409020610ef19083612141565b92505050610d19565b6001600160a01b0385166000908152600160205260409020610f1c9083612141565b95945050505050565b6001600160a01b03808316600081815260026020526040812054909216908114610f6b576001600160a01b0381166000908152600160205260409020610ceb9084612141565b6001600160a01b0384166000908152600160205260409020610d159084612141565b82336001600160a01b0382161461105157806001600160a01b0316638da5cb5b6040518163ffffffff1660e01b8152600401602060405180830381865afa925050508015610ff8575060408051601f3d908101601f19168201909252610ff5918101906125f5565b60015b611026573d80801561043c576040519150601f19603f3d011682016040523d82523d6000602084013e610441565b336001600160a01b0382161461104f57604051631f9ebdff60e31b815260040160405180910390fd5b505b7fc5d2460186f7233c927e7db2dcc703c0e500b653ca82273b7bfad8045d85a470830361109157604051631eaebd5b60e31b815260040160405180910390fd5b6001600160a01b0380851660009081526002602052604090205416806110d55760405163bfc6c33760e01b81526001600160a01b03861660048201526024016104d7565b846001600160a01b0316816001600160a01b031614611112576040516304af4d6960e01b81526001600160a01b03821660048201526024016104d7565b6001600160a01b03851660009081526001602052604090208361116457600061113b8287611fa2565b90508061115e576040516308f0e61560e31b8152600481018790526024016104d7565b50611194565b60006111708287611fae565b90508061119257604051620c35f560e91b8152600481018790526024016104d7565b505b83151585876001600160a01b03167fb8036058bafea884aabc446ca15619fd86f5464a4ad96f64164ad6f77444354d60405160405180910390a4505050505050565b81336001600160a01b0382161461129a57806001600160a01b0316638da5cb5b6040518163ffffffff1660e01b8152600401602060405180830381865afa925050508015611241575060408051601f3d908101601f1916820190925261123e918101906125f5565b60015b61126f573d80801561043c576040519150601f19603f3d011682016040523d82523d6000602084013e610441565b336001600160a01b0382161461129857604051631f9ebdff60e31b815260040160405180910390fd5b505b6001600160a01b038084166000908152600260205260409020541680156112d457604051630ea075bf60e21b815260040160405180910390fd5b826001600160a01b0316846001600160a01b0316036113065760405163347f118f60e01b815260040160405180910390fd5b6001600160a01b03808416600090815260026020526040902054168061134a5760405163bfc6c33760e01b81526001600160a01b03851660048201526024016104d7565b836001600160a01b0316816001600160a01b03161461138757604051631da3952760e21b81526001600160a01b03851660048201526024016104d7565b6001600160a01b03858116600090815260026020908152604080832080546001600160a01b031916948916948517905592825260039052206113c99086612159565b506040516001906001600160a01b038716906000805160206126e783398151915290600090a36040516001906001600160a01b03808716919088169060008051602061270783398151915290600090a45050505050565b81336001600160a01b038216146114e457806001600160a01b0316638da5cb5b6040518163ffffffff1660e01b8152600401602060405180830381865afa92505050801561148b575060408051601f3d908101601f19168201909252611488918101906125f5565b60015b6114b9573d80801561043c576040519150601f19603f3d011682016040523d82523d6000602084013e610441565b336001600160a01b038216146114e257604051631f9ebdff60e31b815260040160405180910390fd5b505b826001600160a01b0316826001600160a01b0316036115165760405163035956d760e31b815260040160405180910390fd5b6001600160a01b0380841660009081526002602052604090205416801561155057604051630ea075bf60e21b815260040160405180910390fd5b6001600160a01b0380841660009081526002602052604090205416806115945760405163bfc6c33760e01b81526001600160a01b03851660048201526024016104d7565b6001600160a01b03851660008181526002602052604080822080546001600160a01b0319168417905551600192916000805160206126e783398151915291a36108628585611fba565b83336001600160a01b038216146116a157806001600160a01b0316638da5cb5b6040518163ffffffff1660e01b8152600401602060405180830381865afa925050508015611648575060408051601f3d908101601f19168201909252611645918101906125f5565b60015b611676573d80801561043c576040519150601f19603f3d011682016040523d82523d6000602084013e610441565b336001600160a01b0382161461169f57604051631f9ebdff60e31b815260040160405180910390fd5b505b6001600160a01b0380861660009081526002602052604090205416806116e55760405163bfc6c33760e01b81526001600160a01b03871660048201526024016104d7565b856001600160a01b0316816001600160a01b031614611722576040516304af4d6960e01b81526001600160a01b03821660048201526024016104d7565b6001600160a01b038616600090815260208190526040902084846117bd5760005b818110156117b757600088888381811061175f5761175f612612565b90506020020160208101906117749190612476565b905060006117828583612120565b9050806117ad576040516322a92e0760e11b81526001600160a01b03831660048201526024016104d7565b5050600101611743565b50611836565b60005b818110156118345760008888838181106117dc576117dc612612565b90506020020160208101906117f19190612476565b905060006117ff8583612159565b90508061182a576040516302ed108d60e21b81526001600160a01b03831660048201526024016104d7565b50506001016117c0565b505b841515886001600160a01b03167f02b85afdacb82d5512c6f05566b3018677ffcbd7e5f75e498bc64081131cbd6c898960405161068b929190612661565b82336001600160a01b0382161461193857806001600160a01b0316638da5cb5b6040518163ffffffff1660e01b8152600401602060405180830381865afa9250505080156118df575060408051601f3d908101601f191682019092526118dc918101906125f5565b60015b61190d573d80801561043c576040519150601f19603f3d011682016040523d82523d6000602084013e610441565b336001600160a01b0382161461193657604051631f9ebdff60e31b815260040160405180910390fd5b505b6001600160a01b03808516600090815260026020526040902054168061197c5760405163bfc6c33760e01b81526001600160a01b03861660048201526024016104d7565b846001600160a01b0316816001600160a01b0316146119b9576040516304af4d6960e01b81526001600160a01b03821660048201526024016104d7565b6001600160a01b038516600090815260208190526040902083611a135760006119e28287612120565b905080611a0d576040516322a92e0760e11b81526001600160a01b03871660048201526024016104d7565b50611a4c565b6000611a1f8287612159565b905080611a4a576040516302ed108d60e21b81526001600160a01b03871660048201526024016104d7565b505b831515856001600160a01b0316876001600160a01b03167f2738289d9deecdc30eb8ffc42876633caecca1ffa166e4efa89f408e17373a1a60405160405180910390a4505050505050565b6001600160a01b03808316600081815260026020526040812054909216908114611add576001600160a01b0381166000908152600160205260409020610ceb9084612135565b6001600160a01b0384166000908152600160205260409020610d159084612135565b81336001600160a01b03821614611bc357806001600160a01b0316638da5cb5b6040518163ffffffff1660e01b8152600401602060405180830381865afa925050508015611b6a575060408051601f3d908101601f19168201909252611b67918101906125f5565b60015b611b98573d80801561043c576040519150601f19603f3d011682016040523d82523d6000602084013e610441565b336001600160a01b03821614611bc157604051631f9ebdff60e31b815260040160405180910390fd5b505b816001600160a01b0316836001600160a01b031603611bf55760405163347f118f60e01b815260040160405180910390fd5b6001600160a01b038216611c1c5760405163b05574d360e01b815260040160405180910390fd5b6001600160a01b038084166000908152600260205260409020541680611c605760405163bfc6c33760e01b81526001600160a01b03851660048201526024016104d7565b826001600160a01b0316816001600160a01b031603611c9d576040516373a4164960e01b81526001600160a01b03841660048201526024016104d7565b6001600160a01b038084166000908152600260205260409020541680611ce15760405163bfc6c33760e01b81526001600160a01b03851660048201526024016104d7565b836001600160a01b0316816001600160a01b031614611d1e57604051631da3952760e21b81526001600160a01b03851660048201526024016104d7565b846001600160a01b0316826001600160a01b031614611d84576001600160a01b0382166000908152600360205260409020611d599086612120565b506040516000906001600160a01b038085169190881690600080516020612707833981519152908490a45b6001600160a01b03858116600090815260026020908152604080832080546001600160a01b03191694891694851790559282526003905220611dc69086612159565b506040516001906001600160a01b03808716919088169060008051602061270783398151915290600090a45050505050565b6001600160a01b0380821660008181526002602052604090205460609216908114611e3e576001600160a01b03811660009081526020819052604090206108af90612113565b6001600160a01b03831660009081526020819052604090206108af90612113565b6001600160a01b038083166000908152600260205260408120549091168015611f30576001600160a01b0381166000908152602081815260408083206001909252909120611ead828661216e565b15611ed65760405163a8cf495d60e01b81526001600160a01b03861660048201526024016104d7565b6001600160a01b0385163b15611f2d576001600160a01b0385163f611efb8282612141565b15611f2b57604051635f3853a960e01b81526001600160a01b0387166004820152602481018290526044016104d7565b505b50505b5060019392505050565b6001600160a01b03808316600081815260026020526040812054909216908114611f80576001600160a01b0381166000908152602081905260409020610ceb908461216e565b6001600160a01b0384166000908152602081905260409020610d15908461216e565b60006108af8383612190565b60006108af8383612283565b6001600160a01b038116600090815260208181526040808320600190925282209091611fe5836122d2565b90506000611ff2836122d2565b905060005b8281101561208057600061200b8683612135565b6001600160a01b0389166000908152602081905260408120919250906120319083612159565b90508015612076576040516001906001600160a01b0380851691908c16907f2738289d9deecdc30eb8ffc42876633caecca1ffa166e4efa89f408e17373a1a90600090a45b5050600101611ff7565b5060005b8181101561210a5760006120988583612135565b6001600160a01b0389166000908152600160205260408120919250906120be9083611fae565b905080156121005760405160019083906001600160a01b038c16907fb8036058bafea884aabc446ca15619fd86f5464a4ad96f64164ad6f77444354d90600090a45b5050600101612084565b50505050505050565b606060006108af836122dc565b60006108af836001600160a01b038416612190565b60006108af8383612338565b600081815260018301602052604081205415156108af565b60006108af836001600160a01b038416612283565b6001600160a01b038116600090815260018301602052604081205415156108af565b600081815260018301602052604081205480156122795760006121b46001836126af565b85549091506000906121c8906001906126af565b905081811461222d5760008660000182815481106121e8576121e8612612565b906000526020600020015490508087600001848154811061220b5761220b612612565b6000918252602080832090910192909255918252600188019052604090208390555b855486908061223e5761223e6126d0565b600190038181906000526020600020016000905590558560010160008681526020019081526020016000206000905560019350505050610d19565b6000915050610d19565b60008181526001830160205260408120546122ca57508154600181810184556000848152602080822090930184905584548482528286019093526040902091909155610d19565b506000610d19565b6000610d19825490565b60608160000180548060200260200160405190810160405280929190818152602001828054801561232c57602002820191906000526020600020905b815481526020019060010190808311612318575b50505050509050919050565b600082600001828154811061234f5761234f612612565b9060005260206000200154905092915050565b6001600160a01b038116811461237757600080fd5b50565b60008083601f84011261238c57600080fd5b50813567ffffffffffffffff8111156123a457600080fd5b6020830191508360208260051b85010111156123bf57600080fd5b9250929050565b80358015158114610ca057600080fd5b600080600080606085870312156123ec57600080fd5b84356123f781612362565b9350602085013567ffffffffffffffff81111561241357600080fd5b61241f8782880161237a565b90945092506124329050604086016123c6565b905092959194509250565b6000806040838503121561245057600080fd5b823561245b81612362565b9150602083013561246b81612362565b809150509250929050565b60006020828403121561248857600080fd5b81356108af81612362565b6020808252825182820181905260009190848201906040850190845b818110156124cb578351835292840192918401916001016124af565b50909695505050505050565b600080604083850312156124ea57600080fd5b82356124f581612362565b9150612503602084016123c6565b90509250929050565b6000806040838503121561251f57600080fd5b823561252a81612362565b946020939093013593505050565b6020808252825182820181905260009190848201906040850190845b818110156124cb5783516001600160a01b031683529284019291840191600101612554565b60008060006060848603121561258e57600080fd5b833561259981612362565b9250602084013591506125ae604085016123c6565b90509250925092565b6000806000606084860312156125cc57600080fd5b83356125d781612362565b925060208401356125e781612362565b91506125ae604085016123c6565b60006020828403121561260757600080fd5b81516108af81612362565b634e487b7160e01b600052603260045260246000fd5b6020808252810182905260006001600160fb1b0383111561264857600080fd5b8260051b80856040850137919091016040019392505050565b60208082528181018390526000908460408401835b868110156126a457823561268981612362565b6001600160a01b031682529183019190830190600101612676565b509695505050505050565b81810381811115610d1957634e487b7160e01b600052601160045260246000fd5b634e487b7160e01b600052603160045260246000fdfe86d03f430c7616021073d7a71766f632f1ce19f289aa989534d9f4732253eb590038c54977604f1a5c0a3604cbbecd0153c81e3131799ead95755e8bb5d5b9e8a2646970667358221220cbace472916ec2cd8f356962b35e0f0a547d8fb33ff9b8625a58989c689719a864736f6c63430008110033",
  "bytecodeSha1": "34944c666047b9889395e35803bb70fea79f8fa0",
  "compiler": {
    "evm_version": "istanbul",
    "optimizer": {
      "enabled": true,
      "runs": 200
    },
    "version": "0.8.17+commit.8df45f5f"
  },
  "contractName": "OperatorFilterRegistry",
  "language": "Solidity",
  "natspec": {
    "kind": "dev",
    "methods": {
      "codeHashOf(address)": {
        "details": "Convenience method to compute the code hash of an arbitrary contract"
      },
      "copyEntriesOf(address,address)": {
        "notice": "Copy filtered operators and codeHashes from a different registrantToCopy to addr."
      },
      "filteredCodeHashAt(address,uint256)": {
        "notice": "Returns the filtered codeHash at the given index of the list of filtered codeHashes for a given address or         its subscription.         Note that order is not guaranteed as updates are made."
      },
      "filteredCodeHashes(address)": {
        "notice": "Returns the set of filtered codeHashes for a given address or its subscription.         Note that order is not guaranteed as updates are made."
      },
      "filteredOperatorAt(address,uint256)": {
        "notice": "Returns the filtered operator at the given index of the set of filtered operators for a given address or         its subscription.         Note that order is not guaranteed as updates are made."
      },
      "filteredOperators(address)": {
        "notice": "Returns a list of filtered operators for a given address or its subscription."
      },
      "isCodeHashFiltered(address,bytes32)": {
        "notice": "Returns true if a codeHash is filtered by a given address or its subscription."
      },
      "isCodeHashOfFiltered(address,address)": {
        "notice": "Returns true if the hash of an address's code is filtered by a given address or its subscription."
      },
      "isOperatorAllowed(address,address)": {
        "notice": "Returns true if operator is not filtered for a given token, either by address or codeHash. Also returns         true if supplied registrant address is not registered."
      },
      "isOperatorFiltered(address,address)": {
        "notice": "Returns true if operator is filtered by a given address or its subscription."
      },
      "isRegistered(address)": {
        "notice": "Returns true if an address has registered"
      },
      "register(address)": {
        "notice": "Registers an address with the registry. May be called by address itself or by EIP-173 owner."
      },
      "registerAndCopyEntries(address,address)": {
        "notice": "Registers an address with the registry and copies the filtered operators and codeHashes from another         address without subscribing."
      },
      "registerAndSubscribe(address,address)": {
        "notice": "Registers an address with the registry and \"subscribes\" to another address's filtered operators and codeHashes."
      },
      "subscribe(address,address)": {
        "notice": "Subscribe an address to another registrant's filtered operators and codeHashes. Will remove previous         subscription if present.         Note that accounts with subscriptions may go on to subscribe to other accounts - in this case,         subscriptions will not be forwarded. Instead the former subscription's existing entries will still be         used."
      },
      "subscriberAt(address,uint256)": {
        "notice": "Get the subscriber at a given index in the set of addresses subscribed to a given registrant.         Note that order is not guaranteed as updates are made."
      },
      "subscribers(address)": {
        "notice": "Get the set of addresses subscribed to a given registrant.         Note that order is not guaranteed as updates are made."
      },
      "subscriptionOf(address)": {
        "notice": "Get the subscription address of a given registrant, if any."
      },
      "unregister(address)": {
        "notice": "Unregisters an address with the registry and removes its subscription. May be called by address itself or by EIP-173 owner.         Note that this does not remove any filtered addresses or codeHashes.         Also note that any subscriptions to this registrant will still be active and follow the existing filtered addresses and codehashes."
      },
      "unsubscribe(address,bool)": {
        "notice": "Unsubscribe an address from its current subscribed registrant, and optionally copy its filtered operators and codeHashes."
      },
      "updateCodeHash(address,bytes32,bool)": {
        "notice": "Update a codeHash for a registered address - when filtered is true, the codeHash is filtered."
      },
      "updateCodeHashes(address,bytes32[],bool)": {
        "notice": "Update multiple codeHashes for a registered address - when filtered is true, the codeHashes will be filtered. Reverts on duplicates."
      },
      "updateOperator(address,address,bool)": {
        "notice": "Update an operator address for a registered address - when filtered is true, the operator is filtered."
      },
      "updateOperators(address,address[],bool)": {
        "notice": "Update multiple operators for a registered address - when filtered is true, the operators will be filtered. Reverts on duplicates."
      }
    },
    "notice": "Borrows heavily from the QQL BlacklistOperatorFilter contract:         https://github.com/qql-art/contracts/blob/main/contracts/BlacklistOperatorFilter.solThis contracts allows tokens or token owners to register specific addresses or codeHashes that may be *       restricted according to the isOperatorAllowed function.",
    "stateVariables": {
      "EOA_CODEHASH": {
        "details": "initialized accounts have a nonzero codehash (see https://eips.ethereum.org/EIPS/eip-1052) Note that this will also be a smart contract's codehash when making calls from its constructor."
      }
    },
    "title": "OperatorFilterRegistry",
    "version": 1
  },
  "opcodes": "PUSH1 0x80 PUSH1 0x40 MSTORE CALLVALUE DUP1 ISZERO PUSH2 0x10 JUMPI PUSH1 0x0 DUP1 REVERT JUMPDEST POP PUSH1 0x4 CALLDATASIZE LT PUSH2 0x158 JUMPI PUSH1 0x0 CALLDATALOAD PUSH1 0xE0 SHR DUP1 PUSH4 0x712FC00B GT PUSH2 0xC3 JUMPI DUP1 PUSH4 0xB314D414 GT PUSH2 0x7C JUMPI DUP1 PUSH4 0xB314D414 EQ PUSH2 0x30E JUMPI DUP1 PUSH4 0xBBD652C7 EQ PUSH2 0x321 JUMPI DUP1 PUSH4 0xC3C5A547 EQ PUSH2 0x33C JUMPI DUP1 PUSH4 0xC4308805 EQ PUSH2 0x36A JUMPI DUP1 PUSH4 0xC6171134 EQ PUSH2 0x37D JUMPI DUP1 PUSH4 0xE4AECB54 EQ PUSH2 0x390 JUMPI PUSH1 0x0 DUP1 REVERT JUMPDEST DUP1 PUSH4 0x712FC00B EQ PUSH2 0x28E JUMPI DUP1 PUSH4 0x7D3E3DBE EQ PUSH2 0x2A1 JUMPI DUP1 PUSH4 0xA0AF2903 EQ PUSH2 0x2B4 JUMPI DUP1 PUSH4 0xA14584C1 EQ PUSH2 0x2C7 JUMPI DUP1 PUSH4 0xA2F367AB EQ PUSH2 0x2DA JUMPI DUP1 PUSH4 0xA6529EB5 EQ PUSH2 0x2ED JUMPI PUSH1 0x0 DUP1 REVERT JUMPDEST DUP1 PUSH4 0x3F1CC5FA GT PUSH2 0x115 JUMPI DUP1 PUSH4 0x3F1CC5FA EQ PUSH2 0x1FF JUMPI DUP1 PUSH4 0x4420E486 EQ PUSH2 0x212 JUMPI DUP1 PUSH4 0x55940E51 EQ PUSH2 0x225 JUMPI DUP1 PUSH4 0x5745AE28 EQ PUSH2 0x238 JUMPI DUP1 PUSH4 0x5EAE3173 EQ PUSH2 0x258 JUMPI DUP1 PUSH4 0x6AF0C315 EQ PUSH2 0x27B JUMPI PUSH1 0x0 DUP1 REVERT JUMPDEST DUP1 PUSH4 0x63298B6 EQ PUSH2 0x15D JUMPI DUP1 PUSH4 0x1E06B4B4 EQ PUSH2 0x172 JUMPI DUP1 PUSH4 0x22FA2762 EQ PUSH2 0x185 JUMPI DUP1 PUSH4 0x2EC2C246 EQ PUSH2 0x1AE JUMPI DUP1 PUSH4 0x34A0DC10 EQ PUSH2 0x1C1 JUMPI DUP1 PUSH4 0x3C5030BB EQ PUSH2 0x1D4 JUMPI JUMPDEST PUSH1 0x0 DUP1 REVERT JUMPDEST PUSH2 0x170 PUSH2 0x16B CALLDATASIZE PUSH1 0x4 PUSH2 0x23D6 JUMP JUMPDEST PUSH2 0x3A3 JUMP JUMPDEST STOP JUMPDEST PUSH2 0x170 PUSH2 0x180 CALLDATASIZE PUSH1 0x4 PUSH2 0x243D JUMP JUMPDEST PUSH2 0x69D JUMP JUMPDEST PUSH2 0x198 PUSH2 0x193 CALLDATASIZE PUSH1 0x4 PUSH2 0x2476 JUMP JUMPDEST PUSH2 0x869 JUMP JUMPDEST PUSH1 0x40 MLOAD PUSH2 0x1A5 SWAP2 SWAP1 PUSH2 0x2493 JUMP JUMPDEST PUSH1 0x40 MLOAD DUP1 SWAP2 SUB SWAP1 RETURN JUMPDEST PUSH2 0x170 PUSH2 0x1BC CALLDATASIZE PUSH1 0x4 PUSH2 0x2476 JUMP JUMPDEST PUSH2 0x8D7 JUMP JUMPDEST PUSH2 0x170 PUSH2 0x1CF CALLDATASIZE PUSH1 0x4 PUSH2 0x24D7 JUMP JUMPDEST PUSH2 0xA88 JUMP JUMPDEST PUSH2 0x1E7 PUSH2 0x1E2 CALLDATASIZE PUSH1 0x4 PUSH2 0x2476 JUMP JUMPDEST PUSH2 0xC3F JUMP JUMPDEST PUSH1 0x40 MLOAD PUSH1 0x1 PUSH1 0x1 PUSH1 0xA0 SHL SUB SWAP1 SWAP2 AND DUP2 MSTORE PUSH1 0x20 ADD PUSH2 0x1A5 JUMP JUMPDEST PUSH2 0x1E7 PUSH2 0x20D CALLDATASIZE PUSH1 0x4 PUSH2 0x250C JUMP JUMPDEST PUSH2 0xCA5 JUMP JUMPDEST PUSH2 0x170 PUSH2 0x220 CALLDATASIZE PUSH1 0x4 PUSH2 0x2476 JUMP JUMPDEST PUSH2 0xD1F JUMP JUMPDEST PUSH2 0x1E7 PUSH2 0x233 CALLDATASIZE PUSH1 0x4 PUSH2 0x250C JUMP JUMPDEST PUSH2 0xE5F JUMP JUMPDEST PUSH2 0x24B PUSH2 0x246 CALLDATASIZE PUSH1 0x4 PUSH2 0x2476 JUMP JUMPDEST PUSH2 0xE81 JUMP JUMPDEST PUSH1 0x40 MLOAD PUSH2 0x1A5 SWAP2 SWAP1 PUSH2 0x2538 JUMP JUMPDEST PUSH2 0x26B PUSH2 0x266 CALLDATASIZE PUSH1 0x4 PUSH2 0x243D JUMP JUMPDEST PUSH2 0xEA5 JUMP JUMPDEST PUSH1 0x40 MLOAD SWAP1 ISZERO ISZERO DUP2 MSTORE PUSH1 0x20 ADD PUSH2 0x1A5 JUMP JUMPDEST PUSH2 0x26B PUSH2 0x289 CALLDATASIZE PUSH1 0x4 PUSH2 0x250C JUMP JUMPDEST PUSH2 0xF25 JUMP JUMPDEST PUSH2 0x170 PUSH2 0x29C CALLDATASIZE PUSH1 0x4 PUSH2 0x2579 JUMP JUMPDEST PUSH2 0xF8D JUMP JUMPDEST PUSH2 0x170 PUSH2 0x2AF CALLDATASIZE PUSH1 0x4 PUSH2 0x243D JUMP JUMPDEST PUSH2 0x11D6 JUMP JUMPDEST PUSH2 0x170 PUSH2 0x2C2 CALLDATASIZE PUSH1 0x4 PUSH2 0x243D JUMP JUMPDEST PUSH2 0x1420 JUMP JUMPDEST PUSH2 0x170 PUSH2 0x2D5 CALLDATASIZE PUSH1 0x4 PUSH2 0x23D6 JUMP JUMPDEST PUSH2 0x15DD JUMP JUMPDEST PUSH2 0x170 PUSH2 0x2E8 CALLDATASIZE PUSH1 0x4 PUSH2 0x25B7 JUMP JUMPDEST PUSH2 0x1874 JUMP JUMPDEST PUSH2 0x300 PUSH2 0x2FB CALLDATASIZE PUSH1 0x4 PUSH2 0x250C JUMP JUMPDEST PUSH2 0x1A97 JUMP JUMPDEST PUSH1 0x40 MLOAD SWAP1 DUP2 MSTORE PUSH1 0x20 ADD PUSH2 0x1A5 JUMP JUMPDEST PUSH2 0x170 PUSH2 0x31C CALLDATASIZE PUSH1 0x4 PUSH2 0x243D JUMP JUMPDEST PUSH2 0x1AFF JUMP JUMPDEST PUSH2 0x300 PUSH2 0x32F CALLDATASIZE PUSH1 0x4 PUSH2 0x2476 JUMP JUMPDEST PUSH1 0x1 PUSH1 0x1 PUSH1 0xA0 SHL SUB AND EXTCODEHASH SWAP1 JUMP JUMPDEST PUSH2 0x26B PUSH2 0x34A CALLDATASIZE PUSH1 0x4 PUSH2 0x2476 JUMP JUMPDEST PUSH1 0x1 PUSH1 0x1 PUSH1 0xA0 SHL SUB SWAP1 DUP2 AND PUSH1 0x0 SWAP1 DUP2 MSTORE PUSH1 0x2 PUSH1 0x20 MSTORE PUSH1 0x40 SWAP1 KECCAK256 SLOAD AND ISZERO ISZERO SWAP1 JUMP JUMPDEST PUSH2 0x24B PUSH2 0x378 CALLDATASIZE PUSH1 0x4 PUSH2 0x2476 JUMP JUMPDEST PUSH2 0x1DF8 JUMP JUMPDEST PUSH2 0x26B PUSH2 0x38B CALLDATASIZE PUSH1 0x4 PUSH2 0x243D JUMP JUMPDEST PUSH2 0x1E5F JUMP JUMPDEST PUSH2 0x26B PUSH2 0x39E CALLDATASIZE PUSH1 0x4 PUSH2 0x243D JUMP JUMPDEST PUSH2 0x1F3A JUMP JUMPDEST DUP4 CALLER PUSH1 0x1 PUSH1 0x1 PUSH1 0xA0 SHL SUB DUP3 AND EQ PUSH2 0x497 JUMPI DUP1 PUSH1 0x1 PUSH1 0x1 PUSH1 0xA0 SHL SUB AND PUSH4 0x8DA5CB5B PUSH1 0x40 MLOAD DUP2 PUSH4 0xFFFFFFFF AND PUSH1 0xE0 SHL DUP2 MSTORE PUSH1 0x4 ADD PUSH1 0x20 PUSH1 0x40 MLOAD DUP1 DUP4 SUB DUP2 DUP7 GAS STATICCALL SWAP3 POP POP POP DUP1 ISZERO PUSH2 0x40E JUMPI POP PUSH1 0x40 DUP1 MLOAD PUSH1 0x1F RETURNDATASIZE SWAP1 DUP2 ADD PUSH1 0x1F NOT AND DUP3 ADD SWAP1 SWAP3 MSTORE PUSH2 0x40B SWAP2 DUP2 ADD SWAP1 PUSH2 0x25F5 JUMP JUMPDEST PUSH1 0x1 JUMPDEST PUSH2 0x46C JUMPI RETURNDATASIZE DUP1 DUP1 ISZERO PUSH2 0x43C JUMPI PUSH1 0x40 MLOAD SWAP2 POP PUSH1 0x1F NOT PUSH1 0x3F RETURNDATASIZE ADD AND DUP3 ADD PUSH1 0x40 MSTORE RETURNDATASIZE DUP3 MSTORE RETURNDATASIZE PUSH1 0x0 PUSH1 0x20 DUP5 ADD RETURNDATACOPY PUSH2 0x441 JUMP JUMPDEST PUSH1 0x60 SWAP2 POP JUMPDEST POP DUP1 MLOAD PUSH1 0x0 SUB PUSH2 0x464 JUMPI PUSH1 0x40 MLOAD PUSH4 0x2CB0505 PUSH1 0xE6 SHL DUP2 MSTORE PUSH1 0x4 ADD PUSH1 0x40 MLOAD DUP1 SWAP2 SUB SWAP1 REVERT JUMPDEST DUP1 MLOAD DUP2 PUSH1 0x20 ADD REVERT JUMPDEST CALLER PUSH1 0x1 PUSH1 0x1 PUSH1 0xA0 SHL SUB DUP3 AND EQ PUSH2 0x495 JUMPI PUSH1 0x40 MLOAD PUSH4 0x1F9EBDFF PUSH1 0xE3 SHL DUP2 MSTORE PUSH1 0x4 ADD PUSH1 0x40 MLOAD DUP1 SWAP2 SUB SWAP1 REVERT JUMPDEST POP JUMPDEST PUSH1 0x1 PUSH1 0x1 PUSH1 0xA0 SHL SUB DUP1 DUP7 AND PUSH1 0x0 SWAP1 DUP2 MSTORE PUSH1 0x2 PUSH1 0x20 MSTORE PUSH1 0x40 SWAP1 KECCAK256 SLOAD AND DUP1 PUSH2 0x4E0 JUMPI PUSH1 0x40 MLOAD PUSH4 0xBFC6C337 PUSH1 0xE0 SHL DUP2 MSTORE PUSH1 0x1 PUSH1 0x1 PUSH1 0xA0 SHL SUB DUP8 AND PUSH1 0x4 DUP3 ADD MSTORE PUSH1 0x24 ADD JUMPDEST PUSH1 0x40 MLOAD DUP1 SWAP2 SUB SWAP1 REVERT JUMPDEST DUP6 PUSH1 0x1 PUSH1 0x1 PUSH1 0xA0 SHL SUB AND DUP2 PUSH1 0x1 PUSH1 0x1 PUSH1 0xA0 SHL SUB AND EQ PUSH2 0x51D JUMPI PUSH1 0x40 MLOAD PUSH4 0x4AF4D69 PUSH1 0xE0 SHL DUP2 MSTORE PUSH1 0x1 PUSH1 0x1 PUSH1 0xA0 SHL SUB DUP3 AND PUSH1 0x4 DUP3 ADD MSTORE PUSH1 0x24 ADD PUSH2 0x4D7 JUMP JUMPDEST PUSH1 0x1 PUSH1 0x1 PUSH1 0xA0 SHL SUB DUP7 AND PUSH1 0x0 SWAP1 DUP2 MSTORE PUSH1 0x1 PUSH1 0x20 MSTORE PUSH1 0x40 SWAP1 KECCAK256 DUP5 DUP5 PUSH2 0x5AB JUMPI PUSH1 0x0 JUMPDEST DUP2 DUP2 LT ISZERO PUSH2 0x5A5 JUMPI PUSH1 0x0 DUP9 DUP9 DUP4 DUP2 DUP2 LT PUSH2 0x55A JUMPI PUSH2 0x55A PUSH2 0x2612 JUMP JUMPDEST SWAP1 POP PUSH1 0x20 MUL ADD CALLDATALOAD SWAP1 POP PUSH1 0x0 PUSH2 0x578 DUP3 DUP7 PUSH2 0x1FA2 SWAP1 SWAP2 SWAP1 PUSH4 0xFFFFFFFF AND JUMP JUMPDEST SWAP1 POP DUP1 PUSH2 0x59B JUMPI PUSH1 0x40 MLOAD PUSH4 0x8F0E615 PUSH1 0xE3 SHL DUP2 MSTORE PUSH1 0x4 DUP2 ADD DUP4 SWAP1 MSTORE PUSH1 0x24 ADD PUSH2 0x4D7 JUMP JUMPDEST POP POP PUSH1 0x1 ADD PUSH2 0x53E JUMP JUMPDEST POP PUSH2 0x64D JUMP JUMPDEST PUSH1 0x0 JUMPDEST DUP2 DUP2 LT ISZERO PUSH2 0x64B JUMPI PUSH1 0x0 DUP9 DUP9 DUP4 DUP2 DUP2 LT PUSH2 0x5CA JUMPI PUSH2 0x5CA PUSH2 0x2612 JUMP JUMPDEST SWAP1 POP PUSH1 0x20 MUL ADD CALLDATALOAD SWAP1 POP PUSH32 0xC5D2460186F7233C927E7DB2DCC703C0E500B653CA82273B7BFAD8045D85A470 DUP2 SUB PUSH2 0x613 JUMPI PUSH1 0x40 MLOAD PUSH4 0x1EAEBD5B PUSH1 0xE3 SHL DUP2 MSTORE PUSH1 0x4 ADD PUSH1 0x40 MLOAD DUP1 SWAP2 SUB SWAP1 REVERT JUMPDEST PUSH1 0x0 PUSH2 0x61F DUP6 DUP4 PUSH2 0x1FAE JUMP JUMPDEST SWAP1 POP DUP1 PUSH2 0x641 JUMPI PUSH1 0x40 MLOAD PUSH3 0xC35F5 PUSH1 0xE9 SHL DUP2 MSTORE PUSH1 0x4 DUP2 ADD DUP4 SWAP1 MSTORE PUSH1 0x24 ADD PUSH2 0x4D7 JUMP JUMPDEST POP POP PUSH1 0x1 ADD PUSH2 0x5AE JUMP JUMPDEST POP JUMPDEST DUP5 ISZERO ISZERO DUP9 PUSH1 0x1 PUSH1 0x1 PUSH1 0xA0 SHL SUB AND PUSH32 0x34E9F70C5A16A4DF2A396CF0CBC4735EB3C7FB6AE40AAA0B34BE7720121D1B96 DUP10 DUP10 PUSH1 0x40 MLOAD PUSH2 0x68B SWAP3 SWAP2 SWAP1 PUSH2 0x2628 JUMP JUMPDEST PUSH1 0x40 MLOAD DUP1 SWAP2 SUB SWAP1 LOG3 POP POP POP POP POP POP POP POP JUMP JUMPDEST DUP2 CALLER PUSH1 0x1 PUSH1 0x1 PUSH1 0xA0 SHL SUB DUP3 AND EQ PUSH2 0x761 JUMPI DUP1 PUSH1 0x1 PUSH1 0x1 PUSH1 0xA0 SHL SUB AND PUSH4 0x8DA5CB5B PUSH1 0x40 MLOAD DUP2 PUSH4 0xFFFFFFFF AND PUSH1 0xE0 SHL DUP2 MSTORE PUSH1 0x4 ADD PUSH1 0x20 PUSH1 0x40 MLOAD DUP1 DUP4 SUB DUP2 DUP7 GAS STATICCALL SWAP3 POP POP POP DUP1 ISZERO PUSH2 0x708 JUMPI POP PUSH1 0x40 DUP1 MLOAD PUSH1 0x1F RETURNDATASIZE SWAP1 DUP2 ADD PUSH1 0x1F NOT AND DUP3 ADD SWAP1 SWAP3 MSTORE PUSH2 0x705 SWAP2 DUP2 ADD SWAP1 PUSH2 0x25F5 JUMP JUMPDEST PUSH1 0x1 JUMPDEST PUSH2 0x736 JUMPI RETURNDATASIZE DUP1 DUP1 ISZERO PUSH2 0x43C JUMPI PUSH1 0x40 MLOAD SWAP2 POP PUSH1 0x1F NOT PUSH1 0x3F RETURNDATASIZE ADD AND DUP3 ADD PUSH1 0x40 MSTORE RETURNDATASIZE DUP3 MSTORE RETURNDATASIZE PUSH1 0x0 PUSH1 0x20 DUP5 ADD RETURNDATACOPY PUSH2 0x441 JUMP JUMPDEST CALLER PUSH1 0x1 PUSH1 0x1 PUSH1 0xA0 SHL SUB DUP3 AND EQ PUSH2 0x75F JUMPI PUSH1 0x40 MLOAD PUSH4 0x1F9EBDFF PUSH1 0xE3 SHL DUP2 MSTORE PUSH1 0x4 ADD PUSH1 0x40 MLOAD DUP1 SWAP2 SUB SWAP1 REVERT JUMPDEST POP JUMPDEST DUP2 PUSH1 0x1 PUSH1 0x1 PUSH1 0xA0 SHL SUB AND DUP4 PUSH1 0x1 PUSH1 0x1 PUSH1 0xA0 SHL SUB AND SUB PUSH2 0x793 JUMPI PUSH1 0x40 MLOAD PUSH4 0x35956D7 PUSH1 0xE3 SHL DUP2 MSTORE PUSH1 0x4 ADD PUSH1 0x40 MLOAD DUP1 SWAP2 SUB SWAP1 REVERT JUMPDEST PUSH1 0x1 PUSH1 0x1 PUSH1 0xA0 SHL SUB DUP1 DUP5 AND PUSH1 0x0 SWAP1 DUP2 MSTORE PUSH1 0x2 PUSH1 0x20 MSTORE PUSH1 0x40 SWAP1 KECCAK256 SLOAD AND DUP1 PUSH2 0x7D7 JUMPI PUSH1 0x40 MLOAD PUSH4 0xBFC6C337 PUSH1 0xE0 SHL DUP2 MSTORE PUSH1 0x1 PUSH1 0x1 PUSH1 0xA0 SHL SUB DUP6 AND PUSH1 0x4 DUP3 ADD MSTORE PUSH1 0x24 ADD PUSH2 0x4D7 JUMP JUMPDEST DUP4 PUSH1 0x1 PUSH1 0x1 PUSH1 0xA0 SHL SUB AND DUP2 PUSH1 0x1 PUSH1 0x1 PUSH1 0xA0 SHL SUB AND EQ PUSH2 0x814 JUMPI PUSH1 0x40 MLOAD PUSH4 0x4AF4D69 PUSH1 0xE0 SHL DUP2 MSTORE PUSH1 0x1 PUSH1 0x1 PUSH1 0xA0 SHL SUB DUP3 AND PUSH1 0x4 DUP3 ADD MSTORE PUSH1 0x24 ADD PUSH2 0x4D7 JUMP JUMPDEST PUSH1 0x1 PUSH1 0x1 PUSH1 0xA0 SHL SUB DUP1 DUP5 AND PUSH1 0x0 SWAP1 DUP2 MSTORE PUSH1 0x2 PUSH1 0x20 MSTORE PUSH1 0x40 SWAP1 KECCAK256 SLOAD AND DUP1 PUSH2 0x858 JUMPI PUSH1 0x40 MLOAD PUSH4 0xBFC6C337 PUSH1 0xE0 SHL DUP2 MSTORE PUSH1 0x1 PUSH1 0x1 PUSH1 0xA0 SHL SUB DUP6 AND PUSH1 0x4 DUP3 ADD MSTORE PUSH1 0x24 ADD PUSH2 0x4D7 JUMP JUMPDEST PUSH2 0x862 DUP6 DUP6 PUSH2 0x1FBA JUMP JUMPDEST POP POP POP POP POP JUMP JUMPDEST PUSH1 0x1 PUSH1 0x1 PUSH1 0xA0 SHL SUB DUP1 DUP3 AND PUSH1 0x0 DUP2 DUP2 MSTORE PUSH1 0x2 PUSH1 0x20 MSTORE PUSH1 0x40 SWAP1 KECCAK256 SLOAD PUSH1 0x60 SWAP3 AND SWAP1 DUP2 EQ PUSH2 0x8B6 JUMPI PUSH1 0x1 PUSH1 0x1 PUSH1 0xA0 SHL SUB DUP2 AND PUSH1 0x0 SWAP1 DUP2 MSTORE PUSH1 0x1 PUSH1 0x20 MSTORE PUSH1 0x40 SWAP1 KECCAK256 PUSH2 0x8AF SWAP1 PUSH2 0x2113 JUMP JUMPDEST SWAP4 SWAP3 POP POP POP JUMP JUMPDEST PUSH1 0x1 PUSH1 0x1 PUSH1 0xA0 SHL SUB DUP4 AND PUSH1 0x0 SWAP1 DUP2 MSTORE PUSH1 0x1 PUSH1 0x20 MSTORE PUSH1 0x40 SWAP1 KECCAK256 PUSH2 0x8AF SWAP1 PUSH2 0x2113 JUMP JUMPDEST DUP1 CALLER PUSH1 0x1 PUSH1 0x1 PUSH1 0xA0 SHL SUB DUP3 AND EQ PUSH2 0x99B JUMPI DUP1 PUSH1 0x1 PUSH1 0x1 PUSH1 0xA0 SHL SUB AND PUSH4 0x8DA5CB5B PUSH1 0x40 MLOAD DUP2 PUSH4 0xFFFFFFFF AND PUSH1 0xE0 SHL DUP2 MSTORE PUSH1 0x4 ADD PUSH1 0x20 PUSH1 0x40 MLOAD DUP1 DUP4 SUB DUP2 DUP7 GAS STATICCALL SWAP3 POP POP POP DUP1 ISZERO PUSH2 0x942 JUMPI POP PUSH1 0x40 DUP1 MLOAD PUSH1 0x1F RETURNDATASIZE SWAP1 DUP2 ADD PUSH1 0x1F NOT AND DUP3 ADD SWAP1 SWAP3 MSTORE PUSH2 0x93F SWAP2 DUP2 ADD SWAP1 PUSH2 0x25F5 JUMP JUMPDEST PUSH1 0x1 JUMPDEST PUSH2 0x970 JUMPI RETURNDATASIZE DUP1 DUP1 ISZERO PUSH2 0x43C JUMPI PUSH1 0x40 MLOAD SWAP2 POP PUSH1 0x1F NOT PUSH1 0x3F RETURNDATASIZE ADD AND DUP3 ADD PUSH1 0x40 MSTORE RETURNDATASIZE DUP3 MSTORE RETURNDATASIZE PUSH1 0x0 PUSH1 0x20 DUP5 ADD RETURNDATACOPY PUSH2 0x441 JUMP JUMPDEST CALLER PUSH1 0x1 PUSH1 0x1 PUSH1 0xA0 SHL SUB DUP3 AND EQ PUSH2 0x999 JUMPI PUSH1 0x40 MLOAD PUSH4 0x1F9EBDFF PUSH1 0xE3 SHL DUP2 MSTORE PUSH1 0x4 ADD PUSH1 0x40 MLOAD DUP1 SWAP2 SUB SWAP1 REVERT JUMPDEST POP JUMPDEST PUSH1 0x1 PUSH1 0x1 PUSH1 0xA0 SHL SUB DUP1 DUP4 AND PUSH1 0x0 SWAP1 DUP2 MSTORE PUSH1 0x2 PUSH1 0x20 MSTORE PUSH1 0x40 SWAP1 KECCAK256 SLOAD AND DUP1 PUSH2 0x9DF JUMPI PUSH1 0x40 MLOAD PUSH4 0xBFC6C337 PUSH1 0xE0 SHL DUP2 MSTORE PUSH1 0x1 PUSH1 0x1 PUSH1 0xA0 SHL SUB DUP5 AND PUSH1 0x4 DUP3 ADD MSTORE PUSH1 0x24 ADD PUSH2 0x4D7 JUMP JUMPDEST DUP3 PUSH1 0x1 PUSH1 0x1 PUSH1 0xA0 SHL SUB AND DUP2 PUSH1 0x1 PUSH1 0x1 PUSH1 0xA0 SHL SUB AND EQ PUSH2 0xA45 JUMPI PUSH1 0x1 PUSH1 0x1 PUSH1 0xA0 SHL SUB DUP2 AND PUSH1 0x0 SWAP1 DUP2 MSTORE PUSH1 0x3 PUSH1 0x20 MSTORE PUSH1 0x40 SWAP1 KECCAK256 PUSH2 0xA1A SWAP1 DUP5 PUSH2 0x2120 JUMP JUMPDEST POP PUSH1 0x40 MLOAD PUSH1 0x0 SWAP1 PUSH1 0x1 PUSH1 0x1 PUSH1 0xA0 SHL SUB DUP1 DUP5 AND SWAP2 SWAP1 DUP7 AND SWAP1 PUSH1 0x0 DUP1 MLOAD PUSH1 0x20 PUSH2 0x2707 DUP4 CODECOPY DUP2 MLOAD SWAP2 MSTORE SWAP1 DUP5 SWAP1 LOG4 JUMPDEST PUSH1 0x1 PUSH1 0x1 PUSH1 0xA0 SHL SUB DUP4 AND PUSH1 0x0 DUP2 DUP2 MSTORE PUSH1 0x2 PUSH1 0x20 MSTORE PUSH1 0x40 DUP1 DUP3 KECCAK256 DUP1 SLOAD PUSH1 0x1 PUSH1 0x1 PUSH1 0xA0 SHL SUB NOT AND SWAP1 SSTORE MLOAD SWAP1 SWAP2 SWAP1 PUSH1 0x0 DUP1 MLOAD PUSH1 0x20 PUSH2 0x26E7 DUP4 CODECOPY DUP2 MLOAD SWAP2 MSTORE SWAP1 DUP4 SWAP1 LOG3 POP POP POP JUMP JUMPDEST DUP2 CALLER PUSH1 0x1 PUSH1 0x1 PUSH1 0xA0 SHL SUB DUP3 AND EQ PUSH2 0xB4C JUMPI DUP1 PUSH1 0x1 PUSH1 0x1 PUSH1 0xA0 SHL SUB AND PUSH4 0x8DA5CB5B PUSH1 0x40 MLOAD DUP2 PUSH4 0xFFFFFFFF AND PUSH1 0xE0 SHL DUP2 MSTORE PUSH1 0x4 ADD PUSH1 0x20 PUSH1 0x40 MLOAD DUP1 DUP4 SUB DUP2 DUP7 GAS STATICCALL SWAP3 POP POP POP DUP1 ISZERO PUSH2 0xAF3 JUMPI POP PUSH1 0x40 DUP1 MLOAD PUSH1 0x1F RETURNDATASIZE SWAP1 DUP2 ADD PUSH1 0x1F NOT AND DUP3 ADD SWAP1 SWAP3 MSTORE PUSH2 0xAF0 SWAP2 DUP2 ADD SWAP1 PUSH2 0x25F5 JUMP JUMPDEST PUSH1 0x1 JUMPDEST PUSH2 0xB21 JUMPI RETURNDATASIZE DUP1 DUP1 ISZERO PUSH2 0x43C JUMPI PUSH1 0x40 MLOAD SWAP2 POP PUSH1 0x1F NOT PUSH1 0x3F RETURNDATASIZE ADD AND DUP3 ADD PUSH1 0x40 MSTORE RETURNDATASIZE DUP3 MSTORE RETURNDATASIZE PUSH1 0x0 PUSH1 0x20 DUP5 ADD RETURNDATACOPY PUSH2 0x441 JUMP JUMPDEST CALLER PUSH1 0x1 PUSH1 0x1 PUSH1 0xA0 SHL SUB DUP3 AND EQ PUSH2 0xB4A JUMPI PUSH1 0x40 MLOAD PUSH4 0x1F9EBDFF PUSH1 0xE3 SHL DUP2 MSTORE PUSH1 0x4 ADD PUSH1 0x40 MLOAD DUP1 SWAP2 SUB SWAP1 REVERT JUMPDEST POP JUMPDEST PUSH1 0x1 PUSH1 0x1 PUSH1 0xA0 SHL SUB DUP1 DUP5 AND PUSH1 0x0 SWAP1 DUP2 MSTORE PUSH1 0x2 PUSH1 0x20 MSTORE PUSH1 0x40 SWAP1 KECCAK256 SLOAD AND DUP1 PUSH2 0xB90 JUMPI PUSH1 0x40 MLOAD PUSH4 0xBFC6C337 PUSH1 0xE0 SHL DUP2 MSTORE PUSH1 0x1 PUSH1 0x1 PUSH1 0xA0 SHL SUB DUP6 AND PUSH1 0x4 DUP3 ADD MSTORE PUSH1 0x24 ADD PUSH2 0x4D7 JUMP JUMPDEST DUP4 PUSH1 0x1 PUSH1 0x1 PUSH1 0xA0 SHL SUB AND DUP2 PUSH1 0x1 PUSH1 0x1 PUSH1 0xA0 SHL SUB AND SUB PUSH2 0xBC2 JUMPI PUSH1 0x40 MLOAD PUSH4 0x46FCD85 PUSH1 0xE3 SHL DUP2 MSTORE PUSH1 0x4 ADD PUSH1 0x40 MLOAD DUP1 SWAP2 SUB SWAP1 REVERT JUMPDEST PUSH1 0x1 PUSH1 0x1 PUSH1 0xA0 SHL SUB DUP2 AND PUSH1 0x0 SWAP1 DUP2 MSTORE PUSH1 0x3 PUSH1 0x20 MSTORE PUSH1 0x40 SWAP1 KECCAK256 PUSH2 0xBE4 SWAP1 DUP6 PUSH2 0x2120 JUMP JUMPDEST POP PUSH1 0x1 PUSH1 0x1 PUSH1 0xA0 SHL SUB DUP1 DUP6 AND PUSH1 0x0 DUP2 DUP2 MSTORE PUSH1 0x2 PUSH1 0x20 MSTORE PUSH1 0x40 DUP1 DUP3 KECCAK256 DUP1 SLOAD PUSH1 0x1 PUSH1 0x1 PUSH1 0xA0 SHL SUB NOT AND DUP5 OR SWAP1 SSTORE MLOAD SWAP1 SWAP3 DUP5 AND SWAP2 SWAP1 PUSH1 0x0 DUP1 MLOAD PUSH1 0x20 PUSH2 0x2707 DUP4 CODECOPY DUP2 MLOAD SWAP2 MSTORE SWAP1 DUP5 SWAP1 LOG4 DUP3 ISZERO PUSH2 0xC39 JUMPI PUSH2 0xC39 DUP5 DUP3 PUSH2 0x1FBA JUMP JUMPDEST POP POP POP POP JUMP JUMPDEST PUSH1 0x1 PUSH1 0x1 PUSH1 0xA0 SHL SUB DUP1 DUP3 AND PUSH1 0x0 SWAP1 DUP2 MSTORE PUSH1 0x2 PUSH1 0x20 MSTORE PUSH1 0x40 SWAP1 KECCAK256 SLOAD AND DUP1 PUSH2 0xC83 JUMPI PUSH1 0x40 MLOAD PUSH4 0xBFC6C337 PUSH1 0xE0 SHL DUP2 MSTORE PUSH1 0x1 PUSH1 0x1 PUSH1 0xA0 SHL SUB DUP4 AND PUSH1 0x4 DUP3 ADD MSTORE PUSH1 0x24 ADD PUSH2 0x4D7 JUMP JUMPDEST DUP2 PUSH1 0x1 PUSH1 0x1 PUSH1 0xA0 SHL SUB AND DUP2 PUSH1 0x1 PUSH1 0x1 PUSH1 0xA0 SHL SUB AND SUB PUSH2 0xCA0 JUMPI POP PUSH1 0x0 JUMPDEST SWAP2 SWAP1 POP JUMP JUMPDEST PUSH1 0x1 PUSH1 0x1 PUSH1 0xA0 SHL SUB DUP1 DUP4 AND PUSH1 0x0 DUP2 DUP2 MSTORE PUSH1 0x2 PUSH1 0x20 MSTORE PUSH1 0x40 DUP2 KECCAK256 SLOAD SWAP1 SWAP3 AND SWAP1 DUP2 EQ PUSH2 0xCF3 JUMPI PUSH1 0x1 PUSH1 0x1 PUSH1 0xA0 SHL SUB DUP2 AND PUSH1 0x0 SWAP1 DUP2 MSTORE PUSH1 0x20 DUP2 SWAP1 MSTORE PUSH1 0x40 SWAP1 KECCAK256 PUSH2 0xCEB SWAP1 DUP5 PUSH2 0x2135 JUMP JUMPDEST SWAP2 POP POP PUSH2 0xD19 JUMP JUMPDEST PUSH1 0x1 PUSH1 0x1 PUSH1 0xA0 SHL SUB DUP5 AND PUSH1 0x0 SWAP1 DUP2 MSTORE PUSH1 0x20 DUP2 SWAP1 MSTORE PUSH1 0x40 SWAP1 KECCAK256 PUSH2 0xD15 SWAP1 DUP5 PUSH2 0x2135 JUMP JUMPDEST SWAP2 POP POP JUMPDEST SWAP3 SWAP2 POP POP JUMP JUMPDEST DUP1 CALLER PUSH1 0x1 PUSH1 0x1 PUSH1 0xA0 SHL SUB DUP3 AND EQ PUSH2 0xDE3 JUMPI DUP1 PUSH1 0x1 PUSH1 0x1 PUSH1 0xA0 SHL SUB AND PUSH4 0x8DA5CB5B PUSH1 0x40 MLOAD DUP2 PUSH4 0xFFFFFFFF AND PUSH1 0xE0 SHL DUP2 MSTORE PUSH1 0x4 ADD PUSH1 0x20 PUSH1 0x40 MLOAD DUP1 DUP4 SUB DUP2 DUP7 GAS STATICCALL SWAP3 POP POP POP DUP1 ISZERO PUSH2 0xD8A JUMPI POP PUSH1 0x40 DUP1 MLOAD PUSH1 0x1F RETURNDATASIZE SWAP1 DUP2 ADD PUSH1 0x1F NOT AND DUP3 ADD SWAP1 SWAP3 MSTORE PUSH2 0xD87 SWAP2 DUP2 ADD SWAP1 PUSH2 0x25F5 JUMP JUMPDEST PUSH1 0x1 JUMPDEST PUSH2 0xDB8 JUMPI RETURNDATASIZE DUP1 DUP1 ISZERO PUSH2 0x43C JUMPI PUSH1 0x40 MLOAD SWAP2 POP PUSH1 0x1F NOT PUSH1 0x3F RETURNDATASIZE ADD AND DUP3 ADD PUSH1 0x40 MSTORE RETURNDATASIZE DUP3 MSTORE RETURNDATASIZE PUSH1 0x0 PUSH1 0x20 DUP5 ADD RETURNDATACOPY PUSH2 0x441 JUMP JUMPDEST CALLER PUSH1 0x1 PUSH1 0x1 PUSH1 0xA0 SHL SUB DUP3 AND EQ PUSH2 0xDE1 JUMPI PUSH1 0x40 MLOAD PUSH4 0x1F9EBDFF PUSH1 0xE3 SHL DUP2 MSTORE PUSH1 0x4 ADD PUSH1 0x40 MLOAD DUP1 SWAP2 SUB SWAP1 REVERT JUMPDEST POP JUMPDEST PUSH1 0x1 PUSH1 0x1 PUSH1 0xA0 SHL SUB DUP3 DUP2 AND PUSH1 0x0 SWAP1 DUP2 MSTORE PUSH1 0x2 PUSH1 0x20 MSTORE PUSH1 0x40 SWAP1 KECCAK256 SLOAD AND ISZERO PUSH2 0xE1C JUMPI PUSH1 0x40 MLOAD PUSH4 0xEA075BF PUSH1 0xE2 SHL DUP2 MSTORE PUSH1 0x4 ADD PUSH1 0x40 MLOAD DUP1 SWAP2 SUB SWAP1 REVERT JUMPDEST PUSH1 0x1 PUSH1 0x1 PUSH1 0xA0 SHL SUB DUP3 AND PUSH1 0x0 DUP2 DUP2 MSTORE PUSH1 0x2 PUSH1 0x20 MSTORE PUSH1 0x40 DUP1 DUP3 KECCAK256 DUP1 SLOAD PUSH1 0x1 PUSH1 0x1 PUSH1 0xA0 SHL SUB NOT AND DUP5 OR SWAP1 SSTORE MLOAD PUSH1 0x1 SWAP3 SWAP2 PUSH1 0x0 DUP1 MLOAD PUSH1 0x20 PUSH2 0x26E7 DUP4 CODECOPY DUP2 MLOAD SWAP2 MSTORE SWAP2 LOG3 POP POP JUMP JUMPDEST PUSH1 0x1 PUSH1 0x1 PUSH1 0xA0 SHL SUB DUP3 AND PUSH1 0x0 SWAP1 DUP2 MSTORE PUSH1 0x3 PUSH1 0x20 MSTORE PUSH1 0x40 DUP2 KECCAK256 PUSH2 0x8AF SWAP1 DUP4 PUSH2 0x2135 JUMP JUMPDEST PUSH1 0x1 PUSH1 0x1 PUSH1 0xA0 SHL SUB DUP2 AND PUSH1 0x0 SWAP1 DUP2 MSTORE PUSH1 0x3 PUSH1 0x20 MSTORE PUSH1 0x40 SWAP1 KECCAK256 PUSH1 0x60 SWAP1 PUSH2 0xD19 SWAP1 PUSH2 0x2113 JUMP JUMPDEST PUSH1 0x1 PUSH1 0x1 PUSH1 0xA0 SHL SUB DUP3 DUP2 AND PUSH1 0x0 DUP2 DUP2 MSTORE PUSH1 0x2 PUSH1 0x20 MSTORE PUSH1 0x40 DUP2 KECCAK256 SLOAD SWAP1 SWAP3 DUP1 DUP6 AND EXTCODEHASH SWAP3 SWAP2 AND SWAP1 DUP2 EQ PUSH2 0xEFA JUMPI PUSH1 0x1 PUSH1 0x1 PUSH1 0xA0 SHL SUB DUP2 AND PUSH1 0x0 SWAP1 DUP2 MSTORE PUSH1 0x1 PUSH1 0x20 MSTORE PUSH1 0x40 SWAP1 KECCAK256 PUSH2 0xEF1 SWAP1 DUP4 PUSH2 0x2141 JUMP JUMPDEST SWAP3 POP POP POP PUSH2 0xD19 JUMP JUMPDEST PUSH1 0x1 PUSH1 0x1 PUSH1 0xA0 SHL SUB DUP6 AND PUSH1 0x0 SWAP1 DUP2 MSTORE PUSH1 0x1 PUSH1 0x20 MSTORE PUSH1 0x40 SWAP1 KECCAK256 PUSH2 0xF1C SWAP1 DUP4 PUSH2 0x2141 JUMP JUMPDEST SWAP6 SWAP5 POP POP POP POP POP JUMP JUMPDEST PUSH1 0x1 PUSH1 0x1 PUSH1 0xA0 SHL SUB DUP1 DUP4 AND PUSH1 0x0 DUP2 DUP2 MSTORE PUSH1 0x2 PUSH1 0x20 MSTORE PUSH1 0x40 DUP2 KECCAK256 SLOAD SWAP1 SWAP3 AND SWAP1 DUP2 EQ PUSH2 0xF6B JUMPI PUSH1 0x1 PUSH1 0x1 PUSH1 0xA0 SHL SUB DUP2 AND PUSH1 0x0 SWAP1 DUP2 MSTORE PUSH1 0x1 PUSH1 0x20 MSTORE PUSH1 0x40 SWAP1 KECCAK256 PUSH2 0xCEB SWAP1 DUP5 PUSH2 0x2141 JUMP JUMPDEST PUSH1 0x1 PUSH1 0x1 PUSH1 0xA0 SHL SUB DUP5 AND PUSH1 0x0 SWAP1 DUP2 MSTORE PUSH1 0x1 PUSH1 0x20 MSTORE PUSH1 0x40 SWAP1 KECCAK256 PUSH2 0xD15 SWAP1 DUP5 PUSH2 0x2141 JUMP JUMPDEST DUP3 CALLER PUSH1 0x1 PUSH1 0x1 PUSH1 0xA0 SHL SUB DUP3 AND EQ PUSH2 0x1051 JUMPI DUP1 PUSH1 0x1 PUSH1 0x1 PUSH1 0xA0 SHL SUB AND PUSH4 0x8DA5CB5B PUSH1 0x40 MLOAD DUP2 PUSH4 0xFFFFFFFF AND PUSH1 0xE0 SHL DUP2 MSTORE PUSH1 0x4 ADD PUSH1 0x20 PUSH1 0x40 MLOAD DUP1 DUP4 SUB DUP2 DUP7 GAS STATICCALL SWAP3 POP POP POP DUP1 ISZERO PUSH2 0xFF8 JUMPI POP PUSH1 0x40 DUP1 MLOAD PUSH1 0x1F RETURNDATASIZE SWAP1 DUP2 ADD PUSH1 0x1F NOT AND DUP3 ADD SWAP1 SWAP3 MSTORE PUSH2 0xFF5 SWAP2 DUP2 ADD SWAP1 PUSH2 0x25F5 JUMP JUMPDEST PUSH1 0x1 JUMPDEST PUSH2 0x1026 JUMPI RETURNDATASIZE DUP1 DUP1 ISZERO PUSH2 0x43C JUMPI PUSH1 0x40 MLOAD SWAP2 POP PUSH1 0x1F NOT PUSH1 0x3F RETURNDATASIZE ADD AND DUP3 ADD PUSH1 0x40 MSTORE RETURNDATASIZE DUP3 MSTORE RETURNDATASIZE PUSH1 0x0 PUSH1 0x20 DUP5 ADD RETURNDATACOPY PUSH2 0x441 JUMP JUMPDEST CALLER PUSH1 0x1 PUSH1 0x1 PUSH1 0xA0 SHL SUB DUP3 AND EQ PUSH2 0x104F JUMPI PUSH1 0x40 MLOAD PUSH4 0x1F9EBDFF PUSH1 0xE3 SHL DUP2 MSTORE PUSH1 0x4 ADD PUSH1 0x40 MLOAD DUP1 SWAP2 SUB SWAP1 REVERT JUMPDEST POP JUMPDEST PUSH32 0xC5D2460186F7233C927E7DB2DCC703C0E500B653CA82273B7BFAD8045D85A470 DUP4 SUB PUSH2 0x1091 JUMPI PUSH1 0x40 MLOAD PUSH4 0x1EAEBD5B PUSH1 0xE3 SHL DUP2 MSTORE PUSH1 0x4 ADD PUSH1 0x40 MLOAD DUP1 SWAP2 SUB SWAP1 REVERT JUMPDEST PUSH1 0x1 PUSH1 0x1 PUSH1 0xA0 SHL SUB DUP1 DUP6 AND PUSH1 0x0 SWAP1 DUP2 MSTORE PUSH1 0x2 PUSH1 0x20 MSTORE PUSH1 0x40 SWAP1 KECCAK256 SLOAD AND DUP1 PUSH2 0x10D5 JUMPI PUSH1 0x40 MLOAD PUSH4 0xBFC6C337 PUSH1 0xE0 SHL DUP2 MSTORE PUSH1 0x1 PUSH1 0x1 PUSH1 0xA0 SHL SUB DUP7 AND PUSH1 0x4 DUP3 ADD MSTORE PUSH1 0x24 ADD PUSH2 0x4D7 JUMP JUMPDEST DUP5 PUSH1 0x1 PUSH1 0x1 PUSH1 0xA0 SHL SUB AND DUP2 PUSH1 0x1 PUSH1 0x1 PUSH1 0xA0 SHL SUB AND EQ PUSH2 0x1112 JUMPI PUSH1 0x40 MLOAD PUSH4 0x4AF4D69 PUSH1 0xE0 SHL DUP2 MSTORE PUSH1 0x1 PUSH1 0x1 PUSH1 0xA0 SHL SUB DUP3 AND PUSH1 0x4 DUP3 ADD MSTORE PUSH1 0x24 ADD PUSH2 0x4D7 JUMP JUMPDEST PUSH1 0x1 PUSH1 0x1 PUSH1 0xA0 SHL SUB DUP6 AND PUSH1 0x0 SWAP1 DUP2 MSTORE PUSH1 0x1 PUSH1 0x20 MSTORE PUSH1 0x40 SWAP1 KECCAK256 DUP4 PUSH2 0x1164 JUMPI PUSH1 0x0 PUSH2 0x113B DUP3 DUP8 PUSH2 0x1FA2 JUMP JUMPDEST SWAP1 POP DUP1 PUSH2 0x115E JUMPI PUSH1 0x40 MLOAD PUSH4 0x8F0E615 PUSH1 0xE3 SHL DUP2 MSTORE PUSH1 0x4 DUP2 ADD DUP8 SWAP1 MSTORE PUSH1 0x24 ADD PUSH2 0x4D7 JUMP JUMPDEST POP PUSH2 0x1194 JUMP JUMPDEST PUSH1 0x0 PUSH2 0x1170 DUP3 DUP8 PUSH2 0x1FAE JUMP JUMPDEST SWAP1 POP DUP1 PUSH2 0x1192 JUMPI PUSH1 0x40 MLOAD PUSH3 0xC35F5 PUSH1 0xE9 SHL DUP2 MSTORE PUSH1 0x4 DUP2 ADD DUP8 SWAP1 MSTORE PUSH1 0x24 ADD PUSH2 0x4D7 JUMP JUMPDEST POP JUMPDEST DUP4 ISZERO ISZERO DUP6 DUP8 PUSH1 0x1 PUSH1 0x1 PUSH1 0xA0 SHL SUB AND PUSH32 0xB8036058BAFEA884AABC446CA15619FD86F5464A4AD96F64164AD6F77444354D PUSH1 0x40 MLOAD PUSH1 0x40 MLOAD DUP1 SWAP2 SUB SWAP1 LOG4 POP POP POP POP POP POP JUMP JUMPDEST DUP2 CALLER PUSH1 0x1 PUSH1 0x1 PUSH1 0xA0 SHL SUB DUP3 AND EQ PUSH2 0x129A JUMPI DUP1 PUSH1 0x1 PUSH1 0x1 PUSH1 0xA0 SHL SUB AND PUSH4 0x8DA5CB5B PUSH1 0x40 MLOAD DUP2 PUSH4 0xFFFFFFFF AND PUSH1 0xE0 SHL DUP2 MSTORE PUSH1 0x4 ADD PUSH1 0x20 PUSH1 0x40 MLOAD DUP1 DUP4 SUB DUP2 DUP7 GAS STATICCALL SWAP3 POP POP POP DUP1 ISZERO PUSH2 0x1241 JUMPI POP PUSH1 0x40 DUP1 MLOAD PUSH1 0x1F RETURNDATASIZE SWAP1 DUP2 ADD PUSH1 0x1F NOT AND DUP3 ADD SWAP1 SWAP3 MSTORE PUSH2 0x123E SWAP2 DUP2 ADD SWAP1 PUSH2 0x25F5 JUMP JUMPDEST PUSH1 0x1 JUMPDEST PUSH2 0x126F JUMPI RETURNDATASIZE DUP1 DUP1 ISZERO PUSH2 0x43C JUMPI PUSH1 0x40 MLOAD SWAP2 POP PUSH1 0x1F NOT PUSH1 0x3F RETURNDATASIZE ADD AND DUP3 ADD PUSH1 0x40 MSTORE RETURNDATASIZE DUP3 MSTORE RETURNDATASIZE PUSH1 0x0 PUSH1 0x20 DUP5 ADD RETURNDATACOPY PUSH2 0x441 JUMP JUMPDEST CALLER PUSH1 0x1 PUSH1 0x1 PUSH1 0xA0 SHL SUB DUP3 AND EQ PUSH2 0x1298 JUMPI PUSH1 0x40 MLOAD PUSH4 0x1F9EBDFF PUSH1 0xE3 SHL DUP2 MSTORE PUSH1 0x4 ADD PUSH1 0x40 MLOAD DUP1 SWAP2 SUB SWAP1 REVERT JUMPDEST POP JUMPDEST PUSH1 0x1 PUSH1 0x1 PUSH1 0xA0 SHL SUB DUP1 DUP5 AND PUSH1 0x0 SWAP1 DUP2 MSTORE PUSH1 0x2 PUSH1 0x20 MSTORE PUSH1 0x40 SWAP1 KECCAK256 SLOAD AND DUP1 ISZERO PUSH2 0x12D4 JUMPI PUSH1 0x40 MLOAD PUSH4 0xEA075BF PUSH1 0xE2 SHL DUP2 MSTORE PUSH1 0x4 ADD PUSH1 0x40 MLOAD DUP1 SWAP2 SUB SWAP1 REVERT JUMPDEST DUP3 PUSH1 0x1 PUSH1 0x1 PUSH1 0xA0 SHL SUB AND DUP5 PUSH1 0x1 PUSH1 0x1 PUSH1 0xA0 SHL SUB AND SUB PUSH2 0x1306 JUMPI PUSH1 0x40 MLOAD PUSH4 0x347F118F PUSH1 0xE0 SHL DUP2 MSTORE PUSH1 0x4 ADD PUSH1 0x40 MLOAD DUP1 SWAP2 SUB SWAP1 REVERT JUMPDEST PUSH1 0x1 PUSH1 0x1 PUSH1 0xA0 SHL SUB DUP1 DUP5 AND PUSH1 0x0 SWAP1 DUP2 MSTORE PUSH1 0x2 PUSH1 0x20 MSTORE PUSH1 0x40 SWAP1 KECCAK256 SLOAD AND DUP1 PUSH2 0x134A JUMPI PUSH1 0x40 MLOAD PUSH4 0xBFC6C337 PUSH1 0xE0 SHL DUP2 MSTORE PUSH1 0x1 PUSH1 0x1 PUSH1 0xA0 SHL SUB DUP6 AND PUSH1 0x4 DUP3 ADD MSTORE PUSH1 0x24 ADD PUSH2 0x4D7 JUMP JUMPDEST DUP4 PUSH1 0x1 PUSH1 0x1 PUSH1 0xA0 SHL SUB AND DUP2 PUSH1 0x1 PUSH1 0x1 PUSH1 0xA0 SHL SUB AND EQ PUSH2 0x1387 JUMPI PUSH1 0x40 MLOAD PUSH4 0x1DA39527 PUSH1 0xE2 SHL DUP2 MSTORE PUSH1 0x1 PUSH1 0x1 PUSH1 0xA0 SHL SUB DUP6 AND PUSH1 0x4 DUP3 ADD MSTORE PUSH1 0x24 ADD PUSH2 0x4D7 JUMP JUMPDEST PUSH1 0x1 PUSH1 0x1 PUSH1 0xA0 SHL SUB DUP6 DUP2 AND PUSH1 0x0 SWAP1 DUP2 MSTORE PUSH1 0x2 PUSH1 0x20 SWAP1 DUP2 MSTORE PUSH1 0x40 DUP1 DUP4 KECCAK256 DUP1 SLOAD PUSH1 0x1 PUSH1 0x1 PUSH1 0xA0 SHL SUB NOT AND SWAP5 DUP10 AND SWAP5 DUP6 OR SWAP1 SSTORE SWAP3 DUP3 MSTORE PUSH1 0x3 SWAP1 MSTORE KECCAK256 PUSH2 0x13C9 SWAP1 DUP7 PUSH2 0x2159 JUMP JUMPDEST POP PUSH1 0x40 MLOAD PUSH1 0x1 SWAP1 PUSH1 0x1 PUSH1 0x1 PUSH1 0xA0 SHL SUB DUP8 AND SWAP1 PUSH1 0x0 DUP1 MLOAD PUSH1 0x20 PUSH2 0x26E7 DUP4 CODECOPY DUP2 MLOAD SWAP2 MSTORE SWAP1 PUSH1 0x0 SWAP1 LOG3 PUSH1 0x40 MLOAD PUSH1 0x1 SWAP1 PUSH1 0x1 PUSH1 0x1 PUSH1 0xA0 SHL SUB DUP1 DUP8 AND SWAP2 SWAP1 DUP9 AND SWAP1 PUSH1 0x0 DUP1 MLOAD PUSH1 0x20 PUSH2 0x2707 DUP4 CODECOPY DUP2 MLOAD SWAP2 MSTORE SWAP1 PUSH1 0x0 SWAP1 LOG4 POP POP POP POP POP JUMP JUMPDEST DUP2 CALLER PUSH1 0x1 PUSH1 0x1 PUSH1 0xA0 SHL SUB DUP3 AND EQ PUSH2 0x14E4 JUMPI DUP1 PUSH1 0x1 PUSH1 0x1 PUSH1 0xA0 SHL SUB AND PUSH4 0x8DA5CB5B PUSH1 0x40 MLOAD DUP2 PUSH4 0xFFFFFFFF AND PUSH1 0xE0 SHL DUP2 MSTORE PUSH1 0x4 ADD PUSH1 0x20 PUSH1 0x40 MLOAD DUP1 DUP4 SUB DUP2 DUP7 GAS STATICCALL SWAP3 POP POP POP DUP1 ISZERO PUSH2 0x148B JUMPI POP PUSH1 0x40 DUP1 MLOAD PUSH1 0x1F RETURNDATASIZE SWAP1 DUP2 ADD PUSH1 0x1F NOT AND DUP3 ADD SWAP1 SWAP3 MSTORE PUSH2 0x1488 SWAP2 DUP2 ADD SWAP1 PUSH2 0x25F5 JUMP JUMPDEST PUSH1 0x1 JUMPDEST PUSH2 0x14B9 JUMPI RETURNDATASIZE DUP1 DUP1 ISZERO PUSH2 0x43C JUMPI PUSH1 0x40 MLOAD SWAP2 POP PUSH1 0x1F NOT PUSH1 0x3F RETURNDATASIZE ADD AND DUP3 ADD PUSH1 0x40 MSTORE RETURNDATASIZE DUP3 MSTORE RETURNDATASIZE PUSH1 0x0 PUSH1 0x20 DUP5 ADD RETURNDATACOPY PUSH2 0x441 JUMP JUMPDEST CALLER PUSH1 0x1 PUSH1 0x1 PUSH1 0xA0 SHL SUB DUP3 AND EQ PUSH2 0x14E2 JUMPI PUSH1 0x40 MLOAD PUSH4 0x1F9EBDFF PUSH1 0xE3 SHL DUP2 MSTORE PUSH1 0x4 ADD PUSH1 0x40 MLOAD DUP1 SWAP2 SUB SWAP1 REVERT JUMPDEST POP JUMPDEST DUP3 PUSH1 0x1 PUSH1 0x1 PUSH1 0xA0 SHL SUB AND DUP3 PUSH1 0x1 PUSH1 0x1 PUSH1 0xA0 SHL SUB AND SUB PUSH2 0x1516 JUMPI PUSH1 0x40 MLOAD PUSH4 0x35956D7 PUSH1 0xE3 SHL DUP2 MSTORE PUSH1 0x4 ADD PUSH1 0x40 MLOAD DUP1 SWAP2 SUB SWAP1 REVERT JUMPDEST PUSH1 0x1 PUSH1 0x1 PUSH1 0xA0 SHL SUB DUP1 DUP5 AND PUSH1 0x0 SWAP1 DUP2 MSTORE PUSH1 0x2 PUSH1 0x20 MSTORE PUSH1 0x40 SWAP1 KECCAK256 SLOAD AND DUP1 ISZERO PUSH2 0x1550 JUMPI PUSH1 0x40 MLOAD PUSH4 0xEA075BF PUSH1 0xE2 SHL DUP2 MSTORE PUSH1 0x4 ADD PUSH1 0x40 MLOAD DUP1 SWAP2 SUB SWAP1 REVERT JUMPDEST PUSH1 0x1 PUSH1 0x1 PUSH1 0xA0 SHL SUB DUP1 DUP5 AND PUSH1 0x0 SWAP1 DUP2 MSTORE PUSH1 0x2 PUSH1 0x20 MSTORE PUSH1 0x40 SWAP1 KECCAK256 SLOAD AND DUP1 PUSH2 0x1594 JUMPI PUSH1 0x40 MLOAD PUSH4 0xBFC6C337 PUSH1 0xE0 SHL DUP2 MSTORE PUSH1 0x1 PUSH1 0x1 PUSH1 0xA0 SHL SUB DUP6 AND PUSH1 0x4 DUP3 ADD MSTORE PUSH1 0x24 ADD PUSH2 0x4D7 JUMP JUMPDEST PUSH1 0x1 PUSH1 0x1 PUSH1 0xA0 SHL SUB DUP6 AND PUSH1 0x0 DUP2 DUP2 MSTORE PUSH1 0x2 PUSH1 0x20 MSTORE PUSH1 0x40 DUP1 DUP3 KECCAK256 DUP1 SLOAD PUSH1 0x1 PUSH1 0x1 PUSH1 0xA0 SHL SUB NOT AND DUP5 OR SWAP1 SSTORE MLOAD PUSH1 0x1 SWAP3 SWAP2 PUSH1 0x0 DUP1 MLOAD PUSH1 0x20 PUSH2 0x26E7 DUP4 CODECOPY DUP2 MLOAD SWAP2 MSTORE SWAP2 LOG3 PUSH2 0x862 DUP6 DUP6 PUSH2 0x1FBA JUMP JUMPDEST DUP4 CALLER PUSH1 0x1 PUSH1 0x1 PUSH1 0xA0 SHL SUB DUP3 AND EQ PUSH2 0x16A1 JUMPI DUP1 PUSH1 0x1 PUSH1 0x1 PUSH1 0xA0 SHL SUB AND PUSH4 0x8DA5CB5B PUSH1 0x40 MLOAD DUP2 PUSH4 0xFFFFFFFF AND PUSH1 0xE0 SHL DUP2 MSTORE PUSH1 0x4 ADD PUSH1 0x20 PUSH1 0x40 MLOAD DUP1 DUP4 SUB DUP2 DUP7 GAS STATICCALL SWAP3 POP POP POP DUP1 ISZERO PUSH2 0x1648 JUMPI POP PUSH1 0x40 DUP1 MLOAD PUSH1 0x1F RETURNDATASIZE SWAP1 DUP2 ADD PUSH1 0x1F NOT AND DUP3 ADD SWAP1 SWAP3 MSTORE PUSH2 0x1645 SWAP2 DUP2 ADD SWAP1 PUSH2 0x25F5 JUMP JUMPDEST PUSH1 0x1 JUMPDEST PUSH2 0x1676 JUMPI RETURNDATASIZE DUP1 DUP1 ISZERO PUSH2 0x43C JUMPI PUSH1 0x40 MLOAD SWAP2 POP PUSH1 0x1F NOT PUSH1 0x3F RETURNDATASIZE ADD AND DUP3 ADD PUSH1 0x40 MSTORE RETURNDATASIZE DUP3 MSTORE RETURNDATASIZE PUSH1 0x0 PUSH1 0x20 DUP5 ADD RETURNDATACOPY PUSH2 0x441 JUMP JUMPDEST CALLER PUSH1 0x1 PUSH1 0x1 PUSH1 0xA0 SHL SUB DUP3 AND EQ PUSH2 0x169F JUMPI PUSH1 0x40 MLOAD PUSH4 0x1F9EBDFF PUSH1 0xE3 SHL DUP2 MSTORE PUSH1 0x4 ADD PUSH1 0x40 MLOAD DUP1 SWAP2 SUB SWAP1 REVERT JUMPDEST POP JUMPDEST PUSH1 0x1 PUSH1 0x1 PUSH1 0xA0 SHL SUB DUP1 DUP7 AND PUSH1 0x0 SWAP1 DUP2 MSTORE PUSH1 0x2 PUSH1 0x20 MSTORE PUSH1 0x40 SWAP1 KECCAK256 SLOAD AND DUP1 PUSH2 0x16E5 JUMPI PUSH1 0x40 MLOAD PUSH4 0xBFC6C337 PUSH1 0xE0 SHL DUP2 MSTORE PUSH1 0x1 PUSH1 0x1 PUSH1 0xA0 SHL SUB DUP8 AND PUSH1 0x4 DUP3 ADD MSTORE PUSH1 0x24 ADD PUSH2 0x4D7 JUMP JUMPDEST DUP6 PUSH1 0x1 PUSH1 0x1 PUSH1 0xA0 SHL SUB AND DUP2 PUSH1 0x1 PUSH1 0x1 PUSH1 0xA0 SHL SUB AND EQ PUSH2 0x1722 JUMPI PUSH1 0x40 MLOAD PUSH4 0x4AF4D69 PUSH1 0xE0 SHL DUP2 MSTORE PUSH1 0x1 PUSH1 0x1 PUSH1 0xA0 SHL SUB DUP3 AND PUSH1 0x4 DUP3 ADD MSTORE PUSH1 0x24 ADD PUSH2 0x4D7 JUMP JUMPDEST PUSH1 0x1 PUSH1 0x1 PUSH1 0xA0 SHL SUB DUP7 AND PUSH1 0x0 SWAP1 DUP2 MSTORE PUSH1 0x20 DUP2 SWAP1 MSTORE PUSH1 0x40 SWAP1 KECCAK256 DUP5 DUP5 PUSH2 0x17BD JUMPI PUSH1 0x0 JUMPDEST DUP2 DUP2 LT ISZERO PUSH2 0x17B7 JUMPI PUSH1 0x0 DUP9 DUP9 DUP4 DUP2 DUP2 LT PUSH2 0x175F JUMPI PUSH2 0x175F PUSH2 0x2612 JUMP JUMPDEST SWAP1 POP PUSH1 0x20 MUL ADD PUSH1 0x20 DUP2 ADD SWAP1 PUSH2 0x1774 SWAP2 SWAP1 PUSH2 0x2476 JUMP JUMPDEST SWAP1 POP PUSH1 0x0 PUSH2 0x1782 DUP6 DUP4 PUSH2 0x2120 JUMP JUMPDEST SWAP1 POP DUP1 PUSH2 0x17AD JUMPI PUSH1 0x40 MLOAD PUSH4 0x22A92E07 PUSH1 0xE1 SHL DUP2 MSTORE PUSH1 0x1 PUSH1 0x1 PUSH1 0xA0 SHL SUB DUP4 AND PUSH1 0x4 DUP3 ADD MSTORE PUSH1 0x24 ADD PUSH2 0x4D7 JUMP JUMPDEST POP POP PUSH1 0x1 ADD PUSH2 0x1743 JUMP JUMPDEST POP PUSH2 0x1836 JUMP JUMPDEST PUSH1 0x0 JUMPDEST DUP2 DUP2 LT ISZERO PUSH2 0x1834 JUMPI PUSH1 0x0 DUP9 DUP9 DUP4 DUP2 DUP2 LT PUSH2 0x17DC JUMPI PUSH2 0x17DC PUSH2 0x2612 JUMP JUMPDEST SWAP1 POP PUSH1 0x20 MUL ADD PUSH1 0x20 DUP2 ADD SWAP1 PUSH2 0x17F1 SWAP2 SWAP1 PUSH2 0x2476 JUMP JUMPDEST SWAP1 POP PUSH1 0x0 PUSH2 0x17FF DUP6 DUP4 PUSH2 0x2159 JUMP JUMPDEST SWAP1 POP DUP1 PUSH2 0x182A JUMPI PUSH1 0x40 MLOAD PUSH4 0x2ED108D PUSH1 0xE2 SHL DUP2 MSTORE PUSH1 0x1 PUSH1 0x1 PUSH1 0xA0 SHL SUB DUP4 AND PUSH1 0x4 DUP3 ADD MSTORE PUSH1 0x24 ADD PUSH2 0x4D7 JUMP JUMPDEST POP POP PUSH1 0x1 ADD PUSH2 0x17C0 JUMP JUMPDEST POP JUMPDEST DUP5 ISZERO ISZERO DUP9 PUSH1 0x1 PUSH1 0x1 PUSH1 0xA0 SHL SUB AND PUSH32 0x2B85AFDACB82D5512C6F05566B3018677FFCBD7E5F75E498BC64081131CBD6C DUP10 DUP10 PUSH1 0x40 MLOAD PUSH2 0x68B SWAP3 SWAP2 SWAP1 PUSH2 0x2661 JUMP JUMPDEST DUP3 CALLER PUSH1 0x1 PUSH1 0x1 PUSH1 0xA0 SHL SUB DUP3 AND EQ PUSH2 0x1938 JUMPI DUP1 PUSH1 0x1 PUSH1 0x1 PUSH1 0xA0 SHL SUB AND PUSH4 0x8DA5CB5B PUSH1 0x40 MLOAD DUP2 PUSH4 0xFFFFFFFF AND PUSH1 0xE0 SHL DUP2 MSTORE PUSH1 0x4 ADD PUSH1 0x20 PUSH1 0x40 MLOAD DUP1 DUP4 SUB DUP2 DUP7 GAS STATICCALL SWAP3 POP POP POP DUP1 ISZERO PUSH2 0x18DF JUMPI POP PUSH1 0x40 DUP1 MLOAD PUSH1 0x1F RETURNDATASIZE SWAP1 DUP2 ADD PUSH1 0x1F NOT AND DUP3 ADD SWAP1 SWAP3 MSTORE PUSH2 0x18DC SWAP2 DUP2 ADD SWAP1 PUSH2 0x25F5 JUMP JUMPDEST PUSH1 0x1 JUMPDEST PUSH2 0x190D JUMPI RETURNDATASIZE DUP1 DUP1 ISZERO PUSH2 0x43C JUMPI PUSH1 0x40 MLOAD SWAP2 POP PUSH1 0x1F NOT PUSH1 0x3F RETURNDATASIZE ADD AND DUP3 ADD PUSH1 0x40 MSTORE RETURNDATASIZE DUP3 MSTORE RETURNDATASIZE PUSH1 0x0 PUSH1 0x20 DUP5 ADD RETURNDATACOPY PUSH2 0x441 JUMP JUMPDEST CALLER PUSH1 0x1 PUSH1 0x1 PUSH1 0xA0 SHL SUB DUP3 AND EQ PUSH2 0x1936 JUMPI PUSH1 0x40 MLOAD PUSH4 0x1F9EBDFF PUSH1 0xE3 SHL DUP2 MSTORE PUSH1 0x4 ADD PUSH1 0x40 MLOAD DUP1 SWAP2 SUB SWAP1 REVERT JUMPDEST POP JUMPDEST PUSH1 0x1 PUSH1 0x1 PUSH1 0xA0 SHL SUB DUP1 DUP6 AND PUSH1 0x0 SWAP1 DUP2 MSTORE PUSH1 0x2 PUSH1 0x20 MSTORE PUSH1 0x40 SWAP1 KECCAK256 SLOAD AND DUP1 PUSH2 0x197C JUMPI PUSH1 0x40 MLOAD PUSH4 0xBFC6C337 PUSH1 0xE0 SHL DUP2 MSTORE PUSH1 0x1 PUSH1 0x1 PUSH1 0xA0 SHL SUB DUP7 AND PUSH1 0x4 DUP3 ADD MSTORE PUSH1 0x24 ADD PUSH2 0x4D7 JUMP JUMPDEST DUP5 PUSH1 0x1 PUSH1 0x1 PUSH1 0xA0 SHL SUB AND DUP2 PUSH1 0x1 PUSH1 0x1 PUSH1 0xA0 SHL SUB AND EQ PUSH2 0x19B9 JUMPI PUSH1 0x40 MLOAD PUSH4 0x4AF4D69 PUSH1 0xE0 SHL DUP2 MSTORE PUSH1 0x1 PUSH1 0x1 PUSH1 0xA0 SHL SUB DUP3 AND PUSH1 0x4 DUP3 ADD MSTORE PUSH1 0x24 ADD PUSH2 0x4D7 JUMP JUMPDEST PUSH1 0x1 PUSH1 0x1 PUSH1 0xA0 SHL SUB DUP6 AND PUSH1 0x0 SWAP1 DUP2 MSTORE PUSH1 0x20 DUP2 SWAP1 MSTORE PUSH1 0x40 SWAP1 KECCAK256 DUP4 PUSH2 0x1A13 JUMPI PUSH1 0x0 PUSH2 0x19E2 DUP3 DUP8 PUSH2 0x2120 JUMP JUMPDEST SWAP1 POP DUP1 PUSH2 0x1A0D JUMPI PUSH1 0x40 MLOAD PUSH4 0x22A92E07 PUSH1 0xE1 SHL DUP2 MSTORE PUSH1 0x1 PUSH1 0x1 PUSH1 0xA0 SHL SUB DUP8 AND PUSH1 0x4 DUP3 ADD MSTORE PUSH1 0x24 ADD PUSH2 0x4D7 JUMP JUMPDEST POP PUSH2 0x1A4C JUMP JUMPDEST PUSH1 0x0 PUSH2 0x1A1F DUP3 DUP8 PUSH2 0x2159 JUMP JUMPDEST SWAP1 POP DUP1 PUSH2 0x1A4A JUMPI PUSH1 0x40 MLOAD PUSH4 0x2ED108D PUSH1 0xE2 SHL DUP2 MSTORE PUSH1 0x1 PUSH1 0x1 PUSH1 0xA0 SHL SUB DUP8 AND PUSH1 0x4 DUP3 ADD MSTORE PUSH1 0x24 ADD PUSH2 0x4D7 JUMP JUMPDEST POP JUMPDEST DUP4 ISZERO ISZERO DUP6 PUSH1 0x1 PUSH1 0x1 PUSH1 0xA0 SHL SUB AND DUP8 PUSH1 0x1 PUSH1 0x1 PUSH1 0xA0 SHL SUB AND PUSH32 0x2738289D9DEECDC30EB8FFC42876633CAECCA1FFA166E4EFA89F408E17373A1A PUSH1 0x40 MLOAD PUSH1 0x40 MLOAD DUP1 SWAP2 SUB SWAP1 LOG4 POP POP POP POP POP POP JUMP JUMPDEST PUSH1 0x1 PUSH1 0x1 PUSH1 0xA0 SHL SUB DUP1 DUP4 AND PUSH1 0x0 DUP2 DUP2 MSTORE PUSH1 0x2 PUSH1 0x20 MSTORE PUSH1 0x40 DUP2 KECCAK256 SLOAD SWAP1 SWAP3 AND SWAP1 DUP2 EQ PUSH2 0x1ADD JUMPI PUSH1 0x1 PUSH1 0x1 PUSH1 0xA0 SHL SUB DUP2 AND PUSH1 0x0 SWAP1 DUP2 MSTORE PUSH1 0x1 PUSH1 0x20 MSTORE PUSH1 0x40 SWAP1 KECCAK256 PUSH2 0xCEB SWAP1 DUP5 PUSH2 0x2135 JUMP JUMPDEST PUSH1 0x1 PUSH1 0x1 PUSH1 0xA0 SHL SUB DUP5 AND PUSH1 0x0 SWAP1 DUP2 MSTORE PUSH1 0x1 PUSH1 0x20 MSTORE PUSH1 0x40 SWAP1 KECCAK256 PUSH2 0xD15 SWAP1 DUP5 PUSH2 0x2135 JUMP JUMPDEST DUP2 CALLER PUSH1 0x1 PUSH1 0x1 PUSH1 0xA0 SHL SUB DUP3 AND EQ PUSH2 0x1BC3 JUMPI DUP1 PUSH1 0x1 PUSH1 0x1 PUSH1 0xA0 SHL SUB AND PUSH4 0x8DA5CB5B PUSH1 0x40 MLOAD DUP2 PUSH4 0xFFFFFFFF AND PUSH1 0xE0 SHL DUP2 MSTORE PUSH1 0x4 ADD PUSH1 0x20 PUSH1 0x40 MLOAD DUP1 DUP4 SUB DUP2 DUP7 GAS STATICCALL SWAP3 POP POP POP DUP1 ISZERO PUSH2 0x1B6A JUMPI POP PUSH1 0x40 DUP1 MLOAD PUSH1 0x1F RETURNDATASIZE SWAP1 DUP2 ADD PUSH1 0x1F NOT AND DUP3 ADD SWAP1 SWAP3 MSTORE PUSH2 0x1B67 SWAP2 DUP2 ADD SWAP1 PUSH2 0x25F5 JUMP JUMPDEST PUSH1 0x1 JUMPDEST PUSH2 0x1B98 JUMPI RETURNDATASIZE DUP1 DUP1 ISZERO PUSH2 0x43C JUMPI PUSH1 0x40 MLOAD SWAP2 POP PUSH1 0x1F NOT PUSH1 0x3F RETURNDATASIZE ADD AND DUP3 ADD PUSH1 0x40 MSTORE RETURNDATASIZE DUP3 MSTORE RETURNDATASIZE PUSH1 0x0 PUSH1 0x20 DUP5 ADD RETURNDATACOPY PUSH2 0x441 JUMP JUMPDEST CALLER PUSH1 0x1 PUSH1 0x1 PUSH1 0xA0 SHL SUB DUP3 AND EQ PUSH2 0x1BC1 JUMPI PUSH1 0x40 MLOAD PUSH4 0x1F9EBDFF PUSH1 0xE3 SHL DUP2 MSTORE PUSH1 0x4 ADD PUSH1 0x40 MLOAD DUP1 SWAP2 SUB SWAP1 REVERT JUMPDEST POP JUMPDEST DUP2 PUSH1 0x1 PUSH1 0x1 PUSH1 0xA0 SHL SUB AND DUP4 PUSH1 0x1 PUSH1 0x1 PUSH1 0xA0 SHL SUB AND SUB PUSH2 0x1BF5 JUMPI PUSH1 0x40 MLOAD PUSH4 0x347F118F PUSH1 0xE0 SHL DUP2 MSTORE PUSH1 0x4 ADD PUSH1 0x40 MLOAD DUP1 SWAP2 SUB SWAP1 REVERT JUMPDEST PUSH1 0x1 PUSH1 0x1 PUSH1 0xA0 SHL SUB DUP3 AND PUSH2 0x1C1C JUMPI PUSH1 0x40 MLOAD PUSH4 0xB05574D3 PUSH1 0xE0 SHL DUP2 MSTORE PUSH1 0x4 ADD PUSH1 0x40 MLOAD DUP1 SWAP2 SUB SWAP1 REVERT JUMPDEST PUSH1 0x1 PUSH1 0x1 PUSH1 0xA0 SHL SUB DUP1 DUP5 AND PUSH1 0x0 SWAP1 DUP2 MSTORE PUSH1 0x2 PUSH1 0x20 MSTORE PUSH1 0x40 SWAP1 KECCAK256 SLOAD AND DUP1 PUSH2 0x1C60 JUMPI PUSH1 0x40 MLOAD PUSH4 0xBFC6C337 PUSH1 0xE0 SHL DUP2 MSTORE PUSH1 0x1 PUSH1 0x1 PUSH1 0xA0 SHL SUB DUP6 AND PUSH1 0x4 DUP3 ADD MSTORE PUSH1 0x24 ADD PUSH2 0x4D7 JUMP JUMPDEST DUP3 PUSH1 0x1 PUSH1 0x1 PUSH1 0xA0 SHL SUB AND DUP2 PUSH1 0x1 PUSH1 0x1 PUSH1 0xA0 SHL SUB AND SUB PUSH2 0x1C9D JUMPI PUSH1 0x40 MLOAD PUSH4 0x73A41649 PUSH1 0xE0 SHL DUP2 MSTORE PUSH1 0x1 PUSH1 0x1 PUSH1 0xA0 SHL SUB DUP5 AND PUSH1 0x4 DUP3 ADD MSTORE PUSH1 0x24 ADD PUSH2 0x4D7 JUMP JUMPDEST PUSH1 0x1 PUSH1 0x1 PUSH1 0xA0 SHL SUB DUP1 DUP5 AND PUSH1 0x0 SWAP1 DUP2 MSTORE PUSH1 0x2 PUSH1 0x20 MSTORE PUSH1 0x40 SWAP1 KECCAK256 SLOAD AND DUP1 PUSH2 0x1CE1 JUMPI PUSH1 0x40 MLOAD PUSH4 0xBFC6C337 PUSH1 0xE0 SHL DUP2 MSTORE PUSH1 0x1 PUSH1 0x1 PUSH1 0xA0 SHL SUB DUP6 AND PUSH1 0x4 DUP3 ADD MSTORE PUSH1 0x24 ADD PUSH2 0x4D7 JUMP JUMPDEST DUP4 PUSH1 0x1 PUSH1 0x1 PUSH1 0xA0 SHL SUB AND DUP2 PUSH1 0x1 PUSH1 0x1 PUSH1 0xA0 SHL SUB AND EQ PUSH2 0x1D1E JUMPI PUSH1 0x40 MLOAD PUSH4 0x1DA39527 PUSH1 0xE2 SHL DUP2 MSTORE PUSH1 0x1 PUSH1 0x1 PUSH1 0xA0 SHL SUB DUP6 AND PUSH1 0x4 DUP3 ADD MSTORE PUSH1 0x24 ADD PUSH2 0x4D7 JUMP JUMPDEST DUP5 PUSH1 0x1 PUSH1 0x1 PUSH1 0xA0 SHL SUB AND DUP3 PUSH1 0x1 PUSH1 0x1 PUSH1 0xA0 SHL SUB AND EQ PUSH2 0x1D84 JUMPI PUSH1 0x1 PUSH1 0x1 PUSH1 0xA0 SHL SUB DUP3 AND PUSH1 0x0 SWAP1 DUP2 MSTORE PUSH1 0x3 PUSH1 0x20 MSTORE PUSH1 0x40 SWAP1 KECCAK256 PUSH2 0x1D59 SWAP1 DUP7 PUSH2 0x2120 JUMP JUMPDEST POP PUSH1 0x40 MLOAD PUSH1 0x0 SWAP1 PUSH1 0x1 PUSH1 0x1 PUSH1 0xA0 SHL SUB DUP1 DUP6 AND SWAP2 SWAP1 DUP9 AND SWAP1 PUSH1 0x0 DUP1 MLOAD PUSH1 0x20 PUSH2 0x2707 DUP4 CODECOPY DUP2 MLOAD SWAP2 MSTORE SWAP1 DUP5 SWAP1 LOG4 JUMPDEST PUSH1 0x1 PUSH1 0x1 PUSH1 0xA0 SHL SUB DUP6 DUP2 AND PUSH1 0x0 SWAP1 DUP2 MSTORE PUSH1 0x2 PUSH1 0x20 SWAP1 DUP2 MSTORE PUSH1 0x40 DUP1 DUP4 KECCAK256 DUP1 SLOAD PUSH1 0x1 PUSH1 0x1 PUSH1 0xA0 SHL SUB NOT AND SWAP5 DUP10 AND SWAP5 DUP6 OR SWAP1 SSTORE SWAP3 DUP3 MSTORE PUSH1 0x3 SWAP1 MSTORE KECCAK256 PUSH2 0x1DC6 SWAP1 DUP7 PUSH2 0x2159 JUMP JUMPDEST POP PUSH1 0x40 MLOAD PUSH1 0x1 SWAP1 PUSH1 0x1 PUSH1 0x1 PUSH1 0xA0 SHL SUB DUP1 DUP8 AND SWAP2 SWAP1 DUP9 AND SWAP1 PUSH1 0x0 DUP1 MLOAD PUSH1 0x20 PUSH2 0x2707 DUP4 CODECOPY DUP2 MLOAD SWAP2 MSTORE SWAP1 PUSH1 0x0 SWAP1 LOG4 POP POP POP POP POP JUMP JUMPDEST PUSH1 0x1 PUSH1 0x1 PUSH1 0xA0 SHL SUB DUP1 DUP3 AND PUSH1 0x0 DUP2 DUP2 MSTORE PUSH1 0x2 PUSH1 0x20 MSTORE PUSH1 0x40 SWAP1 KECCAK256 SLOAD PUSH1 0x60 SWAP3 AND SWAP1 DUP2 EQ PUSH2 0x1E3E JUMPI PUSH1 0x1 PUSH1 0x1 PUSH1 0xA0 SHL SUB DUP2 AND PUSH1 0x0 SWAP1 DUP2 MSTORE PUSH1 0x20 DUP2 SWAP1 MSTORE PUSH1 0x40 SWAP1 KECCAK256 PUSH2 0x8AF SWAP1 PUSH2 0x2113 JUMP JUMPDEST PUSH1 0x1 PUSH1 0x1 PUSH1 0xA0 SHL SUB DUP4 AND PUSH1 0x0 SWAP1 DUP2 MSTORE PUSH1 0x20 DUP2 SWAP1 MSTORE PUSH1 0x40 SWAP1 KECCAK256 PUSH2 0x8AF SWAP1 PUSH2 0x2113 JUMP JUMPDEST PUSH1 0x1 PUSH1 0x1 PUSH1 0xA0 SHL SUB DUP1 DUP4 AND PUSH1 0x0 SWAP1 DUP2 MSTORE PUSH1 0x2 PUSH1 0x20 MSTORE PUSH1 0x40 DUP2 KECCAK256 SLOAD SWAP1 SWAP2 AND DUP1 ISZERO PUSH2 0x1F30 JUMPI PUSH1 0x1 PUSH1 0x1 PUSH1 0xA0 SHL SUB DUP2 AND PUSH1 0x0 SWAP1 DUP2 MSTORE PUSH1 0x20 DUP2 DUP2 MSTORE PUSH1 0x40 DUP1 DUP4 KECCAK256 PUSH1 0x1 SWAP1 SWAP3 MSTORE SWAP1 SWAP2 KECCAK256 PUSH2 0x1EAD DUP3 DUP7 PUSH2 0x216E JUMP JUMPDEST ISZERO PUSH2 0x1ED6 JUMPI PUSH1 0x40 MLOAD PUSH4 0xA8CF495D PUSH1 0xE0 SHL DUP2 MSTORE PUSH1 0x1 PUSH1 0x1 PUSH1 0xA0 SHL SUB DUP7 AND PUSH1 0x4 DUP3 ADD MSTORE PUSH1 0x24 ADD PUSH2 0x4D7 JUMP JUMPDEST PUSH1 0x1 PUSH1 0x1 PUSH1 0xA0 SHL SUB DUP6 AND EXTCODESIZE ISZERO PUSH2 0x1F2D JUMPI PUSH1 0x1 PUSH1 0x1 PUSH1 0xA0 SHL SUB DUP6 AND EXTCODEHASH PUSH2 0x1EFB DUP3 DUP3 PUSH2 0x2141 JUMP JUMPDEST ISZERO PUSH2 0x1F2B JUMPI PUSH1 0x40 MLOAD PUSH4 0x5F3853A9 PUSH1 0xE0 SHL DUP2 MSTORE PUSH1 0x1 PUSH1 0x1 PUSH1 0xA0 SHL SUB DUP8 AND PUSH1 0x4 DUP3 ADD MSTORE PUSH1 0x24 DUP2 ADD DUP3 SWAP1 MSTORE PUSH1 0x44 ADD PUSH2 0x4D7 JUMP JUMPDEST POP JUMPDEST POP POP JUMPDEST POP PUSH1 0x1 SWAP4 SWAP3 POP POP POP JUMP JUMPDEST PUSH1 0x1 PUSH1 0x1 PUSH1 0xA0 SHL SUB DUP1 DUP4 AND PUSH1 0x0 DUP2 DUP2 MSTORE PUSH1 0x2 PUSH1 0x20 MSTORE PUSH1 0x40 DUP2 KECCAK256 SLOAD SWAP1 SWAP3 AND SWAP1 DUP2 EQ PUSH2 0x1F80 JUMPI PUSH1 0x1 PUSH1 0x1 PUSH1 0xA0 SHL SUB DUP2 AND PUSH1 0x0 SWAP1 DUP2 MSTORE PUSH1 0x20 DUP2 SWAP1 MSTORE PUSH1 0x40 SWAP1 KECCAK256 PUSH2 0xCEB SWAP1 DUP5 PUSH2 0x216E JUMP JUMPDEST PUSH1 0x1 PUSH1 0x1 PUSH1 0xA0 SHL SUB DUP5 AND PUSH1 0x0 SWAP1 DUP2 MSTORE PUSH1 0x20 DUP2 SWAP1 MSTORE PUSH1 0x40 SWAP1 KECCAK256 PUSH2 0xD15 SWAP1 DUP5 PUSH2 0x216E JUMP JUMPDEST PUSH1 0x0 PUSH2 0x8AF DUP4 DUP4 PUSH2 0x2190 JUMP JUMPDEST PUSH1 0x0 PUSH2 0x8AF DUP4 DUP4 PUSH2 0x2283 JUMP JUMPDEST PUSH1 0x1 PUSH1 0x1 PUSH1 0xA0 SHL SUB DUP2 AND PUSH1 0x0 SWAP1 DUP2 MSTORE PUSH1 0x20 DUP2 DUP2 MSTORE PUSH1 0x40 DUP1 DUP4 KECCAK256 PUSH1 0x1 SWAP1 SWAP3 MSTORE DUP3 KECCAK256 SWAP1 SWAP2 PUSH2 0x1FE5 DUP4 PUSH2 0x22D2 JUMP JUMPDEST SWAP1 POP PUSH1 0x0 PUSH2 0x1FF2 DUP4 PUSH2 0x22D2 JUMP JUMPDEST SWAP1 POP PUSH1 0x0 JUMPDEST DUP3 DUP2 LT ISZERO PUSH2 0x2080 JUMPI PUSH1 0x0 PUSH2 0x200B DUP7 DUP4 PUSH2 0x2135 JUMP JUMPDEST PUSH1 0x1 PUSH1 0x1 PUSH1 0xA0 SHL SUB DUP10 AND PUSH1 0x0 SWAP1 DUP2 MSTORE PUSH1 0x20 DUP2 SWAP1 MSTORE PUSH1 0x40 DUP2 KECCAK256 SWAP2 SWAP3 POP SWAP1 PUSH2 0x2031 SWAP1 DUP4 PUSH2 0x2159 JUMP JUMPDEST SWAP1 POP DUP1 ISZERO PUSH2 0x2076 JUMPI PUSH1 0x40 MLOAD PUSH1 0x1 SWAP1 PUSH1 0x1 PUSH1 0x1 PUSH1 0xA0 SHL SUB DUP1 DUP6 AND SWAP2 SWAP1 DUP13 AND SWAP1 PUSH32 0x2738289D9DEECDC30EB8FFC42876633CAECCA1FFA166E4EFA89F408E17373A1A SWAP1 PUSH1 0x0 SWAP1 LOG4 JUMPDEST POP POP PUSH1 0x1 ADD PUSH2 0x1FF7 JUMP JUMPDEST POP PUSH1 0x0 JUMPDEST DUP2 DUP2 LT ISZERO PUSH2 0x210A JUMPI PUSH1 0x0 PUSH2 0x2098 DUP6 DUP4 PUSH2 0x2135 JUMP JUMPDEST PUSH1 0x1 PUSH1 0x1 PUSH1 0xA0 SHL SUB DUP10 AND PUSH1 0x0 SWAP1 DUP2 MSTORE PUSH1 0x1 PUSH1 0x20 MSTORE PUSH1 0x40 DUP2 KECCAK256 SWAP2 SWAP3 POP SWAP1 PUSH2 0x20BE SWAP1 DUP4 PUSH2 0x1FAE JUMP JUMPDEST SWAP1 POP DUP1 ISZERO PUSH2 0x2100 JUMPI PUSH1 0x40 MLOAD PUSH1 0x1 SWAP1 DUP4 SWAP1 PUSH1 0x1 PUSH1 0x1 PUSH1 0xA0 SHL SUB DUP13 AND SWAP1 PUSH32 0xB8036058BAFEA884AABC446CA15619FD86F5464A4AD96F64164AD6F77444354D SWAP1 PUSH1 0x0 SWAP1 LOG4 JUMPDEST POP POP PUSH1 0x1 ADD PUSH2 0x2084 JUMP JUMPDEST POP POP POP POP POP POP POP JUMP JUMPDEST PUSH1 0x60 PUSH1 0x0 PUSH2 0x8AF DUP4 PUSH2 0x22DC JUMP JUMPDEST PUSH1 0x0 PUSH2 0x8AF DUP4 PUSH1 0x1 PUSH1 0x1 PUSH1 0xA0 SHL SUB DUP5 AND PUSH2 0x2190 JUMP JUMPDEST PUSH1 0x0 PUSH2 0x8AF DUP4 DUP4 PUSH2 0x2338 JUMP JUMPDEST PUSH1 0x0 DUP2 DUP2 MSTORE PUSH1 0x1 DUP4 ADD PUSH1 0x20 MSTORE PUSH1 0x40 DUP2 KECCAK256 SLOAD ISZERO ISZERO PUSH2 0x8AF JUMP JUMPDEST PUSH1 0x0 PUSH2 0x8AF DUP4 PUSH1 0x1 PUSH1 0x1 PUSH1 0xA0 SHL SUB DUP5 AND PUSH2 0x2283 JUMP JUMPDEST PUSH1 0x1 PUSH1 0x1 PUSH1 0xA0 SHL SUB DUP2 AND PUSH1 0x0 SWAP1 DUP2 MSTORE PUSH1 0x1 DUP4 ADD PUSH1 0x20 MSTORE PUSH1 0x40 DUP2 KECCAK256 SLOAD ISZERO ISZERO PUSH2 0x8AF JUMP JUMPDEST PUSH1 0x0 DUP2 DUP2 MSTORE PUSH1 0x1 DUP4 ADD PUSH1 0x20 MSTORE PUSH1 0x40 DUP2 KECCAK256 SLOAD DUP1 ISZERO PUSH2 0x2279 JUMPI PUSH1 0x0 PUSH2 0x21B4 PUSH1 0x1 DUP4 PUSH2 0x26AF JUMP JUMPDEST DUP6 SLOAD SWAP1 SWAP2 POP PUSH1 0x0 SWAP1 PUSH2 0x21C8 SWAP1 PUSH1 0x1 SWAP1 PUSH2 0x26AF JUMP JUMPDEST SWAP1 POP DUP2 DUP2 EQ PUSH2 0x222D JUMPI PUSH1 0x0 DUP7 PUSH1 0x0 ADD DUP3 DUP2 SLOAD DUP2 LT PUSH2 0x21E8 JUMPI PUSH2 0x21E8 PUSH2 0x2612 JUMP JUMPDEST SWAP1 PUSH1 0x0 MSTORE PUSH1 0x20 PUSH1 0x0 KECCAK256 ADD SLOAD SWAP1 POP DUP1 DUP8 PUSH1 0x0 ADD DUP5 DUP2 SLOAD DUP2 LT PUSH2 0x220B JUMPI PUSH2 0x220B PUSH2 0x2612 JUMP JUMPDEST PUSH1 0x0 SWAP2 DUP3 MSTORE PUSH1 0x20 DUP1 DUP4 KECCAK256 SWAP1 SWAP2 ADD SWAP3 SWAP1 SWAP3 SSTORE SWAP2 DUP3 MSTORE PUSH1 0x1 DUP9 ADD SWAP1 MSTORE PUSH1 0x40 SWAP1 KECCAK256 DUP4 SWAP1 SSTORE JUMPDEST DUP6 SLOAD DUP7 SWAP1 DUP1 PUSH2 0x223E JUMPI PUSH2 0x223E PUSH2 0x26D0 JUMP JUMPDEST PUSH1 0x1 SWAP1 SUB DUP2 DUP2 SWAP1 PUSH1 0x0 MSTORE PUSH1 0x20 PUSH1 0x0 KECCAK256 ADD PUSH1 0x0 SWAP1 SSTORE SWAP1 SSTORE DUP6 PUSH1 0x1 ADD PUSH1 0x0 DUP7 DUP2 MSTORE PUSH1 0x20 ADD SWAP1 DUP2 MSTORE PUSH1 0x20 ADD PUSH1 0x0 KECCAK256 PUSH1 0x0 SWAP1 SSTORE PUSH1 0x1 SWAP4 POP POP POP POP PUSH2 0xD19 JUMP JUMPDEST PUSH1 0x0 SWAP2 POP POP PUSH2 0xD19 JUMP JUMPDEST PUSH1 0x0 DUP2 DUP2 MSTORE PUSH1 0x1 DUP4 ADD PUSH1 0x20 MSTORE PUSH1 0x40 DUP2 KECCAK256 SLOAD PUSH2 0x22CA JUMPI POP DUP2 SLOAD PUSH1 0x1 DUP2 DUP2 ADD DUP5 SSTORE PUSH1 0x0 DUP5 DUP2 MSTORE PUSH1 0x20 DUP1 DUP3 KECCAK256 SWAP1 SWAP4 ADD DUP5 SWAP1 SSTORE DUP5 SLOAD DUP5 DUP3 MSTORE DUP3 DUP7 ADD SWAP1 SWAP4 MSTORE PUSH1 0x40 SWAP1 KECCAK256 SWAP2 SWAP1 SWAP2 SSTORE PUSH2 0xD19 JUMP JUMPDEST POP PUSH1 0x0 PUSH2 0xD19 JUMP JUMPDEST PUSH1 0x0 PUSH2 0xD19 DUP3 SLOAD SWAP1 JUMP JUMPDEST PUSH1 0x60 DUP2 PUSH1 0x0 ADD DUP1 SLOAD DUP1 PUSH1 0x20 MUL PUSH1 0x20 ADD PUSH1 0x40 MLOAD SWAP1 DUP2 ADD PUSH1 0x40 MSTORE DUP1 SWAP3 SWAP2 SWAP1 DUP2 DUP2 MSTORE PUSH1 0x20 ADD DUP3 DUP1 SLOAD DUP1 ISZERO PUSH2 0x232C JUMPI PUSH1 0x20 MUL DUP3 ADD SWAP2 SWAP1 PUSH1 0x0 MSTORE PUSH1 0x20 PUSH1 0x0 KECCAK256 SWAP1 JUMPDEST DUP2 SLOAD DUP2 MSTORE PUSH1 0x20 ADD SWAP1 PUSH1 0x1 ADD SWAP1 DUP1 DUP4 GT PUSH2 0x2318 JUMPI JUMPDEST POP POP POP POP POP SWAP1 POP SWAP2 SWAP1 POP JUMP JUMPDEST PUSH1 0x0 DUP3 PUSH1 0x0 ADD DUP3 DUP2 SLOAD DUP2 LT PUSH2 0x234F JUMPI PUSH2 0x234F PUSH2 0x2612 JUMP JUMPDEST SWAP1 PUSH1 0x0 MSTORE PUSH1 0x20 PUSH1 0x0 KECCAK256 ADD SLOAD SWAP1 POP SWAP3 SWAP2 POP POP JUMP JUMPDEST PUSH1 0x1 PUSH1 0x1 PUSH1 0xA0 SHL SUB DUP2 AND DUP2 EQ PUSH2 0x2377 JUMPI PUSH1 0x0 DUP1 REVERT JUMPDEST POP JUMP JUMPDEST PUSH1 0x0 DUP1 DUP4 PUSH1 0x1F DUP5 ADD SLT PUSH2 0x238C JUMPI PUSH1 0x0 DUP1 REVERT JUMPDEST POP DUP2 CALLDATALOAD PUSH8 0xFFFFFFFFFFFFFFFF DUP2 GT ISZERO PUSH2 0x23A4 JUMPI PUSH1 0x0 DUP1 REVERT JUMPDEST PUSH1 0x20 DUP4 ADD SWAP2 POP DUP4 PUSH1 0x20 DUP3 PUSH1 0x5 SHL DUP6 ADD ADD GT ISZERO PUSH2 0x23BF JUMPI PUSH1 0x0 DUP1 REVERT JUMPDEST SWAP3 POP SWAP3 SWAP1 POP JUMP JUMPDEST DUP1 CALLDATALOAD DUP1 ISZERO ISZERO DUP2 EQ PUSH2 0xCA0 JUMPI PUSH1 0x0 DUP1 REVERT JUMPDEST PUSH1 0x0 DUP1 PUSH1 0x0 DUP1 PUSH1 0x60 DUP6 DUP8 SUB SLT ISZERO PUSH2 0x23EC JUMPI PUSH1 0x0 DUP1 REVERT JUMPDEST DUP5 CALLDATALOAD PUSH2 0x23F7 DUP2 PUSH2 0x2362 JUMP JUMPDEST SWAP4 POP PUSH1 0x20 DUP6 ADD CALLDATALOAD PUSH8 0xFFFFFFFFFFFFFFFF DUP2 GT ISZERO PUSH2 0x2413 JUMPI PUSH1 0x0 DUP1 REVERT JUMPDEST PUSH2 0x241F DUP8 DUP3 DUP9 ADD PUSH2 0x237A JUMP JUMPDEST SWAP1 SWAP5 POP SWAP3 POP PUSH2 0x2432 SWAP1 POP PUSH1 0x40 DUP7 ADD PUSH2 0x23C6 JUMP JUMPDEST SWAP1 POP SWAP3 SWAP6 SWAP2 SWAP5 POP SWAP3 POP JUMP JUMPDEST PUSH1 0x0 DUP1 PUSH1 0x40 DUP4 DUP6 SUB SLT ISZERO PUSH2 0x2450 JUMPI PUSH1 0x0 DUP1 REVERT JUMPDEST DUP3 CALLDATALOAD PUSH2 0x245B DUP2 PUSH2 0x2362 JUMP JUMPDEST SWAP2 POP PUSH1 0x20 DUP4 ADD CALLDATALOAD PUSH2 0x246B DUP2 PUSH2 0x2362 JUMP JUMPDEST DUP1 SWAP2 POP POP SWAP3 POP SWAP3 SWAP1 POP JUMP JUMPDEST PUSH1 0x0 PUSH1 0x20 DUP3 DUP5 SUB SLT ISZERO PUSH2 0x2488 JUMPI PUSH1 0x0 DUP1 REVERT JUMPDEST DUP2 CALLDATALOAD PUSH2 0x8AF DUP2 PUSH2 0x2362 JUMP JUMPDEST PUSH1 0x20 DUP1 DUP3 MSTORE DUP3 MLOAD DUP3 DUP3 ADD DUP2 SWAP1 MSTORE PUSH1 0x0 SWAP2 SWAP1 DUP5 DUP3 ADD SWAP1 PUSH1 0x40 DUP6 ADD SWAP1 DUP5 JUMPDEST DUP2 DUP2 LT ISZERO PUSH2 0x24CB JUMPI DUP4 MLOAD DUP4 MSTORE SWAP3 DUP5 ADD SWAP3 SWAP2 DUP5 ADD SWAP2 PUSH1 0x1 ADD PUSH2 0x24AF JUMP JUMPDEST POP SWAP1 SWAP7 SWAP6 POP POP POP POP POP POP JUMP JUMPDEST PUSH1 0x0 DUP1 PUSH1 0x40 DUP4 DUP6 SUB SLT ISZERO PUSH2 0x24EA JUMPI PUSH1 0x0 DUP1 REVERT JUMPDEST DUP3 CALLDATALOAD PUSH2 0x24F5 DUP2 PUSH2 0x2362 JUMP JUMPDEST SWAP2 POP PUSH2 0x2503 PUSH1 0x20 DUP5 ADD PUSH2 0x23C6 JUMP JUMPDEST SWAP1 POP SWAP3 POP SWAP3 SWAP1 POP JUMP JUMPDEST PUSH1 0x0 DUP1 PUSH1 0x40 DUP4 DUP6 SUB SLT ISZERO PUSH2 0x251F JUMPI PUSH1 0x0 DUP1 REVERT JUMPDEST DUP3 CALLDATALOAD PUSH2 0x252A DUP2 PUSH2 0x2362 JUMP JUMPDEST SWAP5 PUSH1 0x20 SWAP4 SWAP1 SWAP4 ADD CALLDATALOAD SWAP4 POP POP POP JUMP JUMPDEST PUSH1 0x20 DUP1 DUP3 MSTORE DUP3 MLOAD DUP3 DUP3 ADD DUP2 SWAP1 MSTORE PUSH1 0x0 SWAP2 SWAP1 DUP5 DUP3 ADD SWAP1 PUSH1 0x40 DUP6 ADD SWAP1 DUP5 JUMPDEST DUP2 DUP2 LT ISZERO PUSH2 0x24CB JUMPI DUP4 MLOAD PUSH1 0x1 PUSH1 0x1 PUSH1 0xA0 SHL SUB AND DUP4 MSTORE SWAP3 DUP5 ADD SWAP3 SWAP2 DUP5 ADD SWAP2 PUSH1 0x1 ADD PUSH2 0x2554 JUMP JUMPDEST PUSH1 0x0 DUP1 PUSH1 0x0 PUSH1 0x60 DUP5 DUP7 SUB SLT ISZERO PUSH2 0x258E JUMPI PUSH1 0x0 DUP1 REVERT JUMPDEST DUP4 CALLDATALOAD PUSH2 0x2599 DUP2 PUSH2 0x2362 JUMP JUMPDEST SWAP3 POP PUSH1 0x20 DUP5 ADD CALLDATALOAD SWAP2 POP PUSH2 0x25AE PUSH1 0x40 DUP6 ADD PUSH2 0x23C6 JUMP JUMPDEST SWAP1 POP SWAP3 POP SWAP3 POP SWAP3 JUMP JUMPDEST PUSH1 0x0 DUP1 PUSH1 0x0 PUSH1 0x60 DUP5 DUP7 SUB SLT ISZERO PUSH2 0x25CC JUMPI PUSH1 0x0 DUP1 REVERT JUMPDEST DUP4 CALLDATALOAD PUSH2 0x25D7 DUP2 PUSH2 0x2362 JUMP JUMPDEST SWAP3 POP PUSH1 0x20 DUP5 ADD CALLDATALOAD PUSH2 0x25E7 DUP2 PUSH2 0x2362 JUMP JUMPDEST SWAP2 POP PUSH2 0x25AE PUSH1 0x40 DUP6 ADD PUSH2 0x23C6 JUMP JUMPDEST PUSH1 0x0 PUSH1 0x20 DUP3 DUP5 SUB SLT ISZERO PUSH2 0x2607 JUMPI PUSH1 0x0 DUP1 REVERT JUMPDEST DUP2 MLOAD PUSH2 0x8AF DUP2 PUSH2 0x2362 JUMP JUMPDEST PUSH4 0x4E487B71 PUSH1 0xE0 SHL PUSH1 0x0 MSTORE PUSH1 0x32 PUSH1 0x4 MSTORE PUSH1 0x24 PUSH1 0x0 REVERT JUMPDEST PUSH1 0x20 DUP1 DUP3 MSTORE DUP2 ADD DUP3 SWAP1 MSTORE PUSH1 0x0 PUSH1 0x1 PUSH1 0x1 PUSH1 0xFB SHL SUB DUP4 GT ISZERO PUSH2 0x2648 JUMPI PUSH1 0x0 DUP1 REVERT JUMPDEST DUP3 PUSH1 0x5 SHL DUP1 DUP6 PUSH1 0x40 DUP6 ADD CALLDATACOPY SWAP2 SWAP1 SWAP2 ADD PUSH1 0x40 ADD SWAP4 SWAP3 POP POP POP JUMP JUMPDEST PUSH1 0x20 DUP1 DUP3 MSTORE DUP2 DUP2 ADD DUP4 SWAP1 MSTORE PUSH1 0x0 SWAP1 DUP5 PUSH1 0x40 DUP5 ADD DUP4 JUMPDEST DUP7 DUP2 LT ISZERO PUSH2 0x26A4 JUMPI DUP3 CALLDATALOAD PUSH2 0x2689 DUP2 PUSH2 0x2362 JUMP JUMPDEST PUSH1 0x1 PUSH1 0x1 PUSH1 0xA0 SHL SUB AND DUP3 MSTORE SWAP2 DUP4 ADD SWAP2 SWAP1 DUP4 ADD SWAP1 PUSH1 0x1 ADD PUSH2 0x2676 JUMP JUMPDEST POP SWAP7 SWAP6 POP POP POP POP POP POP JUMP JUMPDEST DUP2 DUP2 SUB DUP2 DUP2 GT ISZERO PUSH2 0xD19 JUMPI PUSH4 0x4E487B71 PUSH1 0xE0 SHL PUSH1 0x0 MSTORE PUSH1 0x11 PUSH1 0x4 MSTORE PUSH1 0x24 PUSH1 0x0 REVERT JUMPDEST PUSH4 0x4E487B71 PUSH1 0xE0 SHL PUSH1 0x0 MSTORE PUSH1 0x31 PUSH1 0x4 MSTORE PUSH1 0x24 PUSH1 0x0 REVERT INVALID DUP7 0xD0 EXTCODEHASH NUMBER 0xC PUSH23 0x16021073D7A71766F632F1CE19F289AA989534D9F47322 MSTORE8 0xEB MSIZE STOP CODESIZE 0xC5 0x49 PUSH24 0x604F1A5C0A3604CBBECD0153C81E3131799EAD95755E8BB5 0xD5 0xB9 0xE8 LOG2 PUSH5 0x6970667358 0x22 SLT KECCAK256 0xCB 0xAC 0xE4 PUSH19 0x916EC2CD8F356962B35E0F0A547D8FB33FF9B8 PUSH3 0x5A5898 SWAP13 PUSH9 0x9719A864736F6C6343 STOP ADDMOD GT STOP CALLER ",
  "sha1": "063ef277099a436dd5322ee7af1871d824bcce58",
  "source": "// SPDX-License-Identifier: MIT\npragma solidity ^0.8.13;\n\nimport {IOperatorFilterRegistry} from \"./IOperatorFilterRegistry.sol\";\nimport {Ownable} from \"@openzeppelin/contracts/access/Ownable.sol\";\nimport {EnumerableSet} from \"@openzeppelin/contracts/utils/structs/EnumerableSet.sol\";\nimport {OperatorFilterRegistryErrorsAndEvents} from \"./OperatorFilterRegistryErrorsAndEvents.sol\";\n\n/**\n * @title  OperatorFilterRegistry\n * @notice Borrows heavily from the QQL BlacklistOperatorFilter contract:\n *         https://github.com/qql-art/contracts/blob/main/contracts/BlacklistOperatorFilter.sol\n * @notice This contracts allows tokens or token owners to register specific addresses or codeHashes that may be\n * *       restricted according to the isOperatorAllowed function.\n */\ncontract OperatorFilterRegistry is IOperatorFilterRegistry, OperatorFilterRegistryErrorsAndEvents {\n    using EnumerableSet for EnumerableSet.AddressSet;\n    using EnumerableSet for EnumerableSet.Bytes32Set;\n\n    /// @dev initialized accounts have a nonzero codehash (see https://eips.ethereum.org/EIPS/eip-1052)\n    /// Note that this will also be a smart contract's codehash when making calls from its constructor.\n    bytes32 constant EOA_CODEHASH = keccak256(\"\");\n\n    mapping(address => EnumerableSet.AddressSet) private _filteredOperators;\n    mapping(address => EnumerableSet.Bytes32Set) private _filteredCodeHashes;\n    mapping(address => address) private _registrations;\n    mapping(address => EnumerableSet.AddressSet) private _subscribers;\n\n    /**\n     * @notice restricts method caller to the address or EIP-173 \"owner()\"\n     */\n    modifier onlyAddressOrOwner(address addr) {\n        if (msg.sender != addr) {\n            try Ownable(addr).owner() returns (address owner) {\n                if (msg.sender != owner) {\n                    revert OnlyAddressOrOwner();\n                }\n            } catch (bytes memory reason) {\n                if (reason.length == 0) {\n                    revert NotOwnable();\n                } else {\n                    /// @solidity memory-safe-assembly\n                    assembly {\n                        revert(add(32, reason), mload(reason))\n                    }\n                }\n            }\n        }\n        _;\n    }\n\n    /**\n     * @notice Returns true if operator is not filtered for a given token, either by address or codeHash. Also returns\n     *         true if supplied registrant address is not registered.\n     */\n    function isOperatorAllowed(address registrant, address operator) external view returns (bool) {\n        address registration = _registrations[registrant];\n        if (registration != address(0)) {\n            EnumerableSet.AddressSet storage filteredOperatorsRef;\n            EnumerableSet.Bytes32Set storage filteredCodeHashesRef;\n\n            filteredOperatorsRef = _filteredOperators[registration];\n            filteredCodeHashesRef = _filteredCodeHashes[registration];\n\n            if (filteredOperatorsRef.contains(operator)) {\n                revert AddressFiltered(operator);\n            }\n            if (operator.code.length > 0) {\n                bytes32 codeHash = operator.codehash;\n                if (filteredCodeHashesRef.contains(codeHash)) {\n                    revert CodeHashFiltered(operator, codeHash);\n                }\n            }\n        }\n        return true;\n    }\n\n    //////////////////\n    // AUTH METHODS //\n    //////////////////\n\n    /**\n     * @notice Registers an address with the registry. May be called by address itself or by EIP-173 owner.\n     */\n    function register(address registrant) external onlyAddressOrOwner(registrant) {\n        if (_registrations[registrant] != address(0)) {\n            revert AlreadyRegistered();\n        }\n        _registrations[registrant] = registrant;\n        emit RegistrationUpdated(registrant, true);\n    }\n\n    /**\n     * @notice Unregisters an address with the registry and removes its subscription. May be called by address itself or by EIP-173 owner.\n     *         Note that this does not remove any filtered addresses or codeHashes.\n     *         Also note that any subscriptions to this registrant will still be active and follow the existing filtered addresses and codehashes.\n     */\n    function unregister(address registrant) external onlyAddressOrOwner(registrant) {\n        address registration = _registrations[registrant];\n        if (registration == address(0)) {\n            revert NotRegistered(registrant);\n        }\n        if (registration != registrant) {\n            _subscribers[registration].remove(registrant);\n            emit SubscriptionUpdated(registrant, registration, false);\n        }\n        _registrations[registrant] = address(0);\n        emit RegistrationUpdated(registrant, false);\n    }\n\n    /**\n     * @notice Registers an address with the registry and \"subscribes\" to another address's filtered operators and codeHashes.\n     */\n    function registerAndSubscribe(address registrant, address subscription) external onlyAddressOrOwner(registrant) {\n        address registration = _registrations[registrant];\n        if (registration != address(0)) {\n            revert AlreadyRegistered();\n        }\n        if (registrant == subscription) {\n            revert CannotSubscribeToSelf();\n        }\n        address subscriptionRegistration = _registrations[subscription];\n        if (subscriptionRegistration == address(0)) {\n            revert NotRegistered(subscription);\n        }\n        if (subscriptionRegistration != subscription) {\n            revert CannotSubscribeToRegistrantWithSubscription(subscription);\n        }\n\n        _registrations[registrant] = subscription;\n        _subscribers[subscription].add(registrant);\n        emit RegistrationUpdated(registrant, true);\n        emit SubscriptionUpdated(registrant, subscription, true);\n    }\n\n    /**\n     * @notice Registers an address with the registry and copies the filtered operators and codeHashes from another\n     *         address without subscribing.\n     */\n    function registerAndCopyEntries(address registrant, address registrantToCopy)\n        external\n        onlyAddressOrOwner(registrant)\n    {\n        if (registrantToCopy == registrant) {\n            revert CannotCopyFromSelf();\n        }\n        address registration = _registrations[registrant];\n        if (registration != address(0)) {\n            revert AlreadyRegistered();\n        }\n        address registrantRegistration = _registrations[registrantToCopy];\n        if (registrantRegistration == address(0)) {\n            revert NotRegistered(registrantToCopy);\n        }\n        _registrations[registrant] = registrant;\n        emit RegistrationUpdated(registrant, true);\n        _copyEntries(registrant, registrantToCopy);\n    }\n\n    /**\n     * @notice Update an operator address for a registered address - when filtered is true, the operator is filtered.\n     */\n    function updateOperator(address registrant, address operator, bool filtered)\n        external\n        onlyAddressOrOwner(registrant)\n    {\n        address registration = _registrations[registrant];\n        if (registration == address(0)) {\n            revert NotRegistered(registrant);\n        }\n        if (registration != registrant) {\n            revert CannotUpdateWhileSubscribed(registration);\n        }\n        EnumerableSet.AddressSet storage filteredOperatorsRef = _filteredOperators[registrant];\n\n        if (!filtered) {\n            bool removed = filteredOperatorsRef.remove(operator);\n            if (!removed) {\n                revert AddressNotFiltered(operator);\n            }\n        } else {\n            bool added = filteredOperatorsRef.add(operator);\n            if (!added) {\n                revert AddressAlreadyFiltered(operator);\n            }\n        }\n        emit OperatorUpdated(registrant, operator, filtered);\n    }\n\n    /**\n     * @notice Update a codeHash for a registered address - when filtered is true, the codeHash is filtered.\n     */\n    function updateCodeHash(address registrant, bytes32 codeHash, bool filtered)\n        external\n        onlyAddressOrOwner(registrant)\n    {\n        if (codeHash == EOA_CODEHASH) {\n            revert CannotFilterEOAs();\n        }\n        address registration = _registrations[registrant];\n        if (registration == address(0)) {\n            revert NotRegistered(registrant);\n        }\n        if (registration != registrant) {\n            revert CannotUpdateWhileSubscribed(registration);\n        }\n        EnumerableSet.Bytes32Set storage filteredCodeHashesRef = _filteredCodeHashes[registrant];\n\n        if (!filtered) {\n            bool removed = filteredCodeHashesRef.remove(codeHash);\n            if (!removed) {\n                revert CodeHashNotFiltered(codeHash);\n            }\n        } else {\n            bool added = filteredCodeHashesRef.add(codeHash);\n            if (!added) {\n                revert CodeHashAlreadyFiltered(codeHash);\n            }\n        }\n        emit CodeHashUpdated(registrant, codeHash, filtered);\n    }\n\n    /**\n     * @notice Update multiple operators for a registered address - when filtered is true, the operators will be filtered. Reverts on duplicates.\n     */\n    function updateOperators(address registrant, address[] calldata operators, bool filtered)\n        external\n        onlyAddressOrOwner(registrant)\n    {\n        address registration = _registrations[registrant];\n        if (registration == address(0)) {\n            revert NotRegistered(registrant);\n        }\n        if (registration != registrant) {\n            revert CannotUpdateWhileSubscribed(registration);\n        }\n        EnumerableSet.AddressSet storage filteredOperatorsRef = _filteredOperators[registrant];\n        uint256 operatorsLength = operators.length;\n        unchecked {\n            if (!filtered) {\n                for (uint256 i = 0; i < operatorsLength; ++i) {\n                    address operator = operators[i];\n                    bool removed = filteredOperatorsRef.remove(operator);\n                    if (!removed) {\n                        revert AddressNotFiltered(operator);\n                    }\n                }\n            } else {\n                for (uint256 i = 0; i < operatorsLength; ++i) {\n                    address operator = operators[i];\n                    bool added = filteredOperatorsRef.add(operator);\n                    if (!added) {\n                        revert AddressAlreadyFiltered(operator);\n                    }\n                }\n            }\n        }\n        emit OperatorsUpdated(registrant, operators, filtered);\n    }\n\n    /**\n     * @notice Update multiple codeHashes for a registered address - when filtered is true, the codeHashes will be filtered. Reverts on duplicates.\n     */\n    function updateCodeHashes(address registrant, bytes32[] calldata codeHashes, bool filtered)\n        external\n        onlyAddressOrOwner(registrant)\n    {\n        address registration = _registrations[registrant];\n        if (registration == address(0)) {\n            revert NotRegistered(registrant);\n        }\n        if (registration != registrant) {\n            revert CannotUpdateWhileSubscribed(registration);\n        }\n        EnumerableSet.Bytes32Set storage filteredCodeHashesRef = _filteredCodeHashes[registrant];\n        uint256 codeHashesLength = codeHashes.length;\n        unchecked {\n            if (!filtered) {\n                for (uint256 i = 0; i < codeHashesLength; ++i) {\n                    bytes32 codeHash = codeHashes[i];\n                    bool removed = filteredCodeHashesRef.remove(codeHash);\n                    if (!removed) {\n                        revert CodeHashNotFiltered(codeHash);\n                    }\n                }\n            } else {\n                for (uint256 i = 0; i < codeHashesLength; ++i) {\n                    bytes32 codeHash = codeHashes[i];\n                    if (codeHash == EOA_CODEHASH) {\n                        revert CannotFilterEOAs();\n                    }\n                    bool added = filteredCodeHashesRef.add(codeHash);\n                    if (!added) {\n                        revert CodeHashAlreadyFiltered(codeHash);\n                    }\n                }\n            }\n        }\n        emit CodeHashesUpdated(registrant, codeHashes, filtered);\n    }\n\n    /**\n     * @notice Subscribe an address to another registrant's filtered operators and codeHashes. Will remove previous\n     *         subscription if present.\n     *         Note that accounts with subscriptions may go on to subscribe to other accounts - in this case,\n     *         subscriptions will not be forwarded. Instead the former subscription's existing entries will still be\n     *         used.\n     */\n    function subscribe(address registrant, address newSubscription) external onlyAddressOrOwner(registrant) {\n        if (registrant == newSubscription) {\n            revert CannotSubscribeToSelf();\n        }\n        if (newSubscription == address(0)) {\n            revert CannotSubscribeToZeroAddress();\n        }\n        address registration = _registrations[registrant];\n        if (registration == address(0)) {\n            revert NotRegistered(registrant);\n        }\n        if (registration == newSubscription) {\n            revert AlreadySubscribed(newSubscription);\n        }\n        address newSubscriptionRegistration = _registrations[newSubscription];\n        if (newSubscriptionRegistration == address(0)) {\n            revert NotRegistered(newSubscription);\n        }\n        if (newSubscriptionRegistration != newSubscription) {\n            revert CannotSubscribeToRegistrantWithSubscription(newSubscription);\n        }\n\n        if (registration != registrant) {\n            _subscribers[registration].remove(registrant);\n            emit SubscriptionUpdated(registrant, registration, false);\n        }\n        _registrations[registrant] = newSubscription;\n        _subscribers[newSubscription].add(registrant);\n        emit SubscriptionUpdated(registrant, newSubscription, true);\n    }\n\n    /**\n     * @notice Unsubscribe an address from its current subscribed registrant, and optionally copy its filtered operators and codeHashes.\n     */\n    function unsubscribe(address registrant, bool copyExistingEntries) external onlyAddressOrOwner(registrant) {\n        address registration = _registrations[registrant];\n        if (registration == address(0)) {\n            revert NotRegistered(registrant);\n        }\n        if (registration == registrant) {\n            revert NotSubscribed();\n        }\n        _subscribers[registration].remove(registrant);\n        _registrations[registrant] = registrant;\n        emit SubscriptionUpdated(registrant, registration, false);\n        if (copyExistingEntries) {\n            _copyEntries(registrant, registration);\n        }\n    }\n\n    /**\n     * @notice Copy filtered operators and codeHashes from a different registrantToCopy to addr.\n     */\n    function copyEntriesOf(address registrant, address registrantToCopy) external onlyAddressOrOwner(registrant) {\n        if (registrant == registrantToCopy) {\n            revert CannotCopyFromSelf();\n        }\n        address registration = _registrations[registrant];\n        if (registration == address(0)) {\n            revert NotRegistered(registrant);\n        }\n        if (registration != registrant) {\n            revert CannotUpdateWhileSubscribed(registration);\n        }\n        address registrantRegistration = _registrations[registrantToCopy];\n        if (registrantRegistration == address(0)) {\n            revert NotRegistered(registrantToCopy);\n        }\n        _copyEntries(registrant, registrantToCopy);\n    }\n\n    /// @dev helper to copy entries from registrantToCopy to registrant and emit events\n    function _copyEntries(address registrant, address registrantToCopy) private {\n        EnumerableSet.AddressSet storage filteredOperatorsRef = _filteredOperators[registrantToCopy];\n        EnumerableSet.Bytes32Set storage filteredCodeHashesRef = _filteredCodeHashes[registrantToCopy];\n        uint256 filteredOperatorsLength = filteredOperatorsRef.length();\n        uint256 filteredCodeHashesLength = filteredCodeHashesRef.length();\n        unchecked {\n            for (uint256 i = 0; i < filteredOperatorsLength; ++i) {\n                address operator = filteredOperatorsRef.at(i);\n                bool added = _filteredOperators[registrant].add(operator);\n                if (added) {\n                    emit OperatorUpdated(registrant, operator, true);\n                }\n            }\n            for (uint256 i = 0; i < filteredCodeHashesLength; ++i) {\n                bytes32 codehash = filteredCodeHashesRef.at(i);\n                bool added = _filteredCodeHashes[registrant].add(codehash);\n                if (added) {\n                    emit CodeHashUpdated(registrant, codehash, true);\n                }\n            }\n        }\n    }\n\n    //////////////////\n    // VIEW METHODS //\n    //////////////////\n\n    /**\n     * @notice Get the subscription address of a given registrant, if any.\n     */\n    function subscriptionOf(address registrant) external view returns (address subscription) {\n        subscription = _registrations[registrant];\n        if (subscription == address(0)) {\n            revert NotRegistered(registrant);\n        } else if (subscription == registrant) {\n            subscription = address(0);\n        }\n    }\n\n    /**\n     * @notice Get the set of addresses subscribed to a given registrant.\n     *         Note that order is not guaranteed as updates are made.\n     */\n    function subscribers(address registrant) external view returns (address[] memory) {\n        return _subscribers[registrant].values();\n    }\n\n    /**\n     * @notice Get the subscriber at a given index in the set of addresses subscribed to a given registrant.\n     *         Note that order is not guaranteed as updates are made.\n     */\n    function subscriberAt(address registrant, uint256 index) external view returns (address) {\n        return _subscribers[registrant].at(index);\n    }\n\n    /**\n     * @notice Returns true if operator is filtered by a given address or its subscription.\n     */\n    function isOperatorFiltered(address registrant, address operator) external view returns (bool) {\n        address registration = _registrations[registrant];\n        if (registration != registrant) {\n            return _filteredOperators[registration].contains(operator);\n        }\n        return _filteredOperators[registrant].contains(operator);\n    }\n\n    /**\n     * @notice Returns true if a codeHash is filtered by a given address or its subscription.\n     */\n    function isCodeHashFiltered(address registrant, bytes32 codeHash) external view returns (bool) {\n        address registration = _registrations[registrant];\n        if (registration != registrant) {\n            return _filteredCodeHashes[registration].contains(codeHash);\n        }\n        return _filteredCodeHashes[registrant].contains(codeHash);\n    }\n\n    /**\n     * @notice Returns true if the hash of an address's code is filtered by a given address or its subscription.\n     */\n    function isCodeHashOfFiltered(address registrant, address operatorWithCode) external view returns (bool) {\n        bytes32 codeHash = operatorWithCode.codehash;\n        address registration = _registrations[registrant];\n        if (registration != registrant) {\n            return _filteredCodeHashes[registration].contains(codeHash);\n        }\n        return _filteredCodeHashes[registrant].contains(codeHash);\n    }\n\n    /**\n     * @notice Returns true if an address has registered\n     */\n    function isRegistered(address registrant) external view returns (bool) {\n        return _registrations[registrant] != address(0);\n    }\n\n    /**\n     * @notice Returns a list of filtered operators for a given address or its subscription.\n     */\n    function filteredOperators(address registrant) external view returns (address[] memory) {\n        address registration = _registrations[registrant];\n        if (registration != registrant) {\n            return _filteredOperators[registration].values();\n        }\n        return _filteredOperators[registrant].values();\n    }\n\n    /**\n     * @notice Returns the set of filtered codeHashes for a given address or its subscription.\n     *         Note that order is not guaranteed as updates are made.\n     */\n    function filteredCodeHashes(address registrant) external view returns (bytes32[] memory) {\n        address registration = _registrations[registrant];\n        if (registration != registrant) {\n            return _filteredCodeHashes[registration].values();\n        }\n        return _filteredCodeHashes[registrant].values();\n    }\n\n    /**\n     * @notice Returns the filtered operator at the given index of the set of filtered operators for a given address or\n     *         its subscription.\n     *         Note that order is not guaranteed as updates are made.\n     */\n    function filteredOperatorAt(address registrant, uint256 index) external view returns (address) {\n        address registration = _registrations[registrant];\n        if (registration != registrant) {\n            return _filteredOperators[registration].at(index);\n        }\n        return _filteredOperators[registrant].at(index);\n    }\n\n    /**\n     * @notice Returns the filtered codeHash at the given index of the list of filtered codeHashes for a given address or\n     *         its subscription.\n     *         Note that order is not guaranteed as updates are made.\n     */\n    function filteredCodeHashAt(address registrant, uint256 index) external view returns (bytes32) {\n        address registration = _registrations[registrant];\n        if (registration != registrant) {\n            return _filteredCodeHashes[registration].at(index);\n        }\n        return _filteredCodeHashes[registrant].at(index);\n    }\n\n    /// @dev Convenience method to compute the code hash of an arbitrary contract\n    function codeHashOf(address a) external view returns (bytes32) {\n        return a.codehash;\n    }\n}\n",
  "sourcePath": "contracts/OperatorFilterRegistry.sol",
  "type": "contract"
}